:020000040800F2
:100000000000022039450008F10A0008F30A000840
:10001000F50A0008F70A0008F90A000800000000C5
:10002000000000000000000000000000FB0A0008C3
:10003000FD0A000800000000FF0A0008010B00088C
:100040008945000889450008894500088945000858
:100050008945000889450008894500088945000848
:100060008945000889450008894500088945000838
:100070008945000889450008894500088945000828
:100080008945000889450008894500088945000818
:100090008945000889450008894500088945000808
:1000A00089450008894500088945000889450008F8
:1000B00089450008894500088945000889450008E8
:1000C00089450008894500088945000889450008D8
:1000D00089450008894500088945000889450008C8
:1000E00089450008894500088945000889450008B8
:1000F00089450008894500088945000889450008A8
:100100008945000889450008894500088945000897
:100110008945000889450008894500088945000887
:100120008945000889450008894500088945000877
:100130008945000889450008894500088945000867
:10014000894500088945000889450008090B000811
:100150008945000889450008894500088945000847
:100160008945000889450008894500088945000837
:1001700089450008894500088945000800000000FD
:080180008945000889450008CB
:1001880010B5054C237833B9044B13B10448AFF3C9
:1001980000800123237010BD7C00002000000000B7
:1001A8003448000808B5034B1BB103490348AFF3B3
:1001B800008008BD000000008000002034480008CE
:1001C80053B94AB9002908BF00281CBF4FF0FF31B6
:1001D8004FF0FF3000F088B9ADF1080C6DE904CE9E
:1001E80000F006F8DDF804E0DDE9022304B070470A
:1001F8002DE9F047089D8E4604468846002B4AD1D3
:100208008A42174662D9B2FA82F64EB1C6F1200385
:1002180001FA06F820FA03F3B74043EA0808B440A5
:100228004FEA174E1FFA87FCB8FBFEF1230C0EFBB2
:10023800118843EA084301FB0CF29A4209D9FB18DA
:1002480001F1FF3080F0EA809A4240F2E7800239FB
:100258003B449A1AA3B2B2FBFEF00EFB102243EA0B
:10026800024300FB0CFC9C4509D9FB1800F1FF3246
:1002780080F0D6809C4540F2D3803B44023840EA67
:100288000140A3EB0C0300211DB1F3400022C5E996
:100298000032BDE8F0878B4205D90DB1C5E90001F0
:1002A80000210846F5E7B3FA83F1002946D17345E2
:1002B80002D3824200F20581841A6EEB0302012008
:1002C8009046002DE5D0C5E90048E2E7002A00F095
:1002D8009080B2FA82F6002E40F0A4808A1A030CAD
:1002E8004FEA174E80B2BCB20121B2FBFEFC0EFBF6
:1002F8001C2243EA024304FB0CF29A4207D9FB187A
:100308000CF1FF3802D29A4200F2E080C4469B1AF0
:10031800B3FBFEF20EFB123340EA034302FB04F484
:100328009C4207D9FB1802F1FF3002D29C4200F22E
:10033800CA8002461B1B42EA0C40A5E7C1F1200611
:100348008B4022FA06F71F430EFA01F420FA06F34F
:100358002EFA06FE4FEA1749234300FA01F81FFA5E
:1003680087FCBEFBF9F01C0C09FB10EE44EA0E44B6
:1003780000FB0CFEA64502FA01F209D93C1900F16E
:10038800FF3A80F09C80A64540F2998002383C44B0
:10039800A4EB0E041FFA83FEB4FBF9F309FB134424
:1003A8004EEA044403FB0CFCA44508D93C1903F1AC
:1003B800FF3E80F08280A4457FD9023B3C4443EA5B
:1003C8000040A4EB0C04A0FB02EC64457346E14634
:1003D80062D35FD05DB1B8EB030264EB090404FAA1
:1003E80006F622FA01F31E43CC40C5E90064002159
:1003F8004FE7B1FBF2FC010C41EA0E4180B240EA42
:1004080001423B4638463C46B846BE462026B1FB2C
:10041800F7F1A2EB080241EA0C4166E7014618E74A
:1004280010462CE7C6F120022EFA02F3B740B1407D
:1004380020FA02F24FEA174E0A43B3FBFEF8BCB2A9
:100448000EFB1833110C41EA034108FB04F9B040D4
:1004580089454FEA104380B23ED9791808F1FF3C2C
:1004680001D289451FD8A1EB0901B1FBFEF909FBAF
:1004780004F80EFB191192B242EA0142424529D210
:10048800BA1809F1FF31C4D24245C2D2A9F102011A
:100498003A44BEE7F0459DD2BEEB02036CEB070C75
:1004A8000138E14696E7A7EB09094944A8F1020C8F
:1004B800B1FBFEF909FB04F8DBE773467FE750461A
:1004C80066E70846FDE63B44023A33E7ACF1020C26
:1004D8003B441CE749469CE7A1EB0901C446B1FB34
:1004E800FEF909FB04F8C4E7704700BF2DE9F04F97
:1004F8008DB000240794089409940A940B940194ED
:10050800564B1A6B42F010021A631A6B02F0100273
:100518000192019A02941A6B42F004021A631A6B50
:1005280002F004020292029A03941A6B42F08002CB
:100538001A631A6B02F080020392039A04941A6BEE
:1005480042F001021A631A6B02F001020492049A43
:1005580005941A6B42F002021A631A6B02F0020247
:100568000592059A06941A6B42F008021A631B6BEF
:1005780003F008030693069B394E224608213046AD
:1005880002F0F4FDDFF8E09001221146484602F03F
:10059800EDFDDFF8D88022464FF21001404602F008
:1005A800E5FD082707970125089509940A9407A9E6
:1005B800304602F0E5FC0795089509940A9407A9C6
:1005C800484602F0DDFC07970227089709940A9429
:1005D8004FF0050ACDF82CA007A9484602F0D0FC38
:1005E80007954FF49019CDF82090099407A91D4854
:1005F80002F0C6FC0423079308940994DFF870B04E
:1006080007A9584602F0BCFC4FF48063079308978B
:1006180009940A94CDF82CA007A9584602F0B0FC1A
:100628004FF210030793089509940A9407A94046C6
:1006380002F0A6FC202307930894099407A94046D2
:1006480002F09EFC0797CDF82090099407A9304640
:1006580002F096FC0DB0BDE8F08F00BF00380240F4
:10066800001002400000024000080240000C024056
:100678000004024072B6FEE708B50A480A4B036058
:100688000A4B436000238360C3604FF480420261D9
:1006980043618361C361036202F050FE00B908BD83
:1006A800FFF7E8FF3801002000540040A086010051
:1006B80008B50A480A4B03604FF4007242600023F1
:1006C8008360C3600261074A42618361C361036258
:1006D80002F012FF00B908BDFFF7CCFFF0000020C0
:1006E800003C00400077010008B50D480D4B036041
:1006F8004FF48273436000238360C36003614361E6
:100708004FF400728261C3610362436283620A2309
:10071800C36203F0EFF900B908BDFFF7ABFF00BFF4
:10072800980000200030014000B595B0302200212B
:1007380008A803F0E5FF00230393049305930693A9
:1007480007930193214A116C41F080511164126C96
:1007580002F080520192019A02931D4B1A6842F4EA
:1007680080421A601B6803F480430293029B0123B2
:1007780008934FF48033099302230E934FF48002B9
:100788000F92082210924FF4A87211921293072325
:10079800139308A801F0E2FF98B90F2303930223EB
:1007A8000493002305934FF4A05306934FF480530A
:1007B8000793052103A802F03BFA20B915B05DF8AC
:1007C80004FBFFF757FFFFF755FF00BF0038024053
:1007D8000070004070B582B002F070FDFFF7A4FF12
:1007E800FFF784FEFFF748FFFFF762FFFFF77CFF84
:1007F80000F03CF8104B93E8030002AB03E9030058
:1008080018E002AB03EB440333F8086C0B4D0122EC
:100818003146284602F0AAFC642002F07BFD002243
:100828003146284602F0A2FC642002F073FD013430
:10083800032CE6DD0024FBE74C480008000C0240CE
:1008480004290CD0052902D0022904D07047064B90
:1008580003221A707047044B02221A707047024B29
:1008680001221A70F2E700BF8C01002008B50122AE
:100878000B490C4803F0FFF948B90B49094803F044
:1008880019FA38B9074803F05AFA30B908BDFFF722
:10089800F1FEF2E7FFF7EEFEF4E7FFF7EBFEF5E710
:1008A80049080008E00200200C00002070B588B05C
:1008B8000023039304930593069307930368B3F106
:1008C800A04F01D008B070BD002401941B4D2B6BC4
:1008D80043F001032B632B6B03F001030193019B8E
:1008E8004FF40073039304940594154E03A93046FE
:1008F80002F046FB4FF4E05303930223049305945C
:1009080006940A23079303A9304602F039FB6B6B60
:1009180043F080036B6302946B6C43F480436B6415
:100928006B6C03F480430293029B224621464320CA
:1009380002F076FC432002F083FCC3E70038024053
:100948000000024008B5D0F8DC0303F005FA08BD42
:1009580008B5D0F8DC0303F010FA08BD08B5D0F8E4
:10096800DC0303F014FA08BD704708B5D0F8DC03BF
:1009780003F0FBF908BD08B5D0F8DC0303F0F9F97A
:1009880008BD000090F8CC33012B01D0002070473F
:1009980010B504460F48C0F8DC43C4F8D0034FF044
:1009A800A0430360082343710123C37100238371AB
:1009B80002224272837200F000FA40B9054801F041
:1009C80072F90146204603F0C4F9002010BDFFF774
:1009D80051FEF3E7B806002008B5D0F8D00301F0BF
:1009E8005CF908BD08B5D0F8D00301F04FF908BD8F
:1009F80008B590F8CC33012B04D0C82002F08AFC4B
:100A0800002008BD084600F063F8F6E7D0F8D033B8
:100A1800C1EB011003EB8000C07D38B1C1EB0111BF
:100A280003EB810181F83C2000207047C1EB0111E4
:100A380003EB810181F83D20F6E7022805D8DFE8BD
:100A480000F005040200012070470220704708B535
:100A5800D0F8D00301F0F3F8FFF7EFFF08BD08B5B1
:100A6800D0F8D00301F000F9FFF7E7FF08BD10B593
:100A780084B0D0F8D003BDF8204002949DF81C4003
:100A880001949DF81840009401F01EF9FFF7D5FF76
:100A980004B010BD08B5D0F8D00300F07CF9FFF71A
:100AA800CCFF08BD10B584B0D0F8D0039DF8244021
:100AB8000394BDF820400294079C01949DF81840C7
:100AC800009400F0C1F9FFF7B8FF04B010BD0000B2
:100AD80008B5024600B101220121024802F046FB96
:100AE80008BD00BF00080240FEE7FEE7FEE7FEE79C
:100AF800FEE770477047704708B502F0F9FB08BD7C
:100B080008B5024800F0ECFF08BD00BFB806002099
:100B180000B583B0002100910C4B5A6C42F480421E
:100B28005A645A6C02F480420092009A01911A6C3D
:100B380042F080521A641B6C03F080530193019BAE
:100B4800072002F05BFB03B05DF804FB00380240AD
:100B580030B589B000230393049305930693079354
:100B68000268154B9A4201D009B030BD00250195A5
:100B7800124C236B43F002032363236B03F002033D
:100B88000193019B4FF410730393122304930123E1
:100B9800059306950423079303A9094802F0F0F981
:100BA8000295236C43F400132364236C03F40013AD
:100BB8000293029BD8E700BF00540040003802406F
:100BC8000004024070B58CB0002307930893099382
:100BD8000A930B9306930268254B9A4201D00CB0F6
:100BE80070BD01230393C02304930223059303A834
:100BF80002F0E4F8002837D1002400941D4B1A6C49
:100C080042F400421A641A6C02F400420092009AFC
:100C180001941A6B42F001021A631A6B02F0010286
:100C28000192019A02941A6B42F004021A631B6B38
:100C380003F004030293029B1023079302260896ED
:100C480009940A9406250B9507A90B4802F098F910
:100C58004FF4A4530793089609940A940B9507A98F
:100C6800064802F08DF9BAE7FFF704FDC4E700BFB4
:100C7800003C0040003802400000024000080240EA
:100C880000B589B000230393049305930693079353
:100C98000268154B9A4202D009B05DF804FB0022A5
:100CA800019203F58433596C41F480515964596CAD
:100CB80001F48051019101990292196B41F00101EF
:100CC80019631B6B03F001030293029BE023039358
:100CD80002230493059206920523079303A9034868
:100CE80002F04EF9D8E700BF003001400000024092
:100CF800F8B50668346A04F00F07C4F34343C4F335
:100D08000A14022B00D0F8BD0546002CFBD0C7EB17
:100D1800071300EB8303D96A0029F4D0C7EB071344
:100D280000EB83039A6B22445B6B9A4207D9C7EBAB
:100D3800071700EB8705042385F84C30E3E72246C4
:100D4800304601F0FFF8C7EB071305EB8303DA6AB7
:100D58002244DA629A6B22449A6306EB4716D6F865
:100D68001025C2F3C9421B8DA342CCD1002ACAD098
:100D7800D6F8003523F0804343F00043C6F8003529
:100D8800C7EB071305EB830393F83C2082F00102BD
:100D980083F83C20B7E790F8D433012B0BD010B57B
:100DA8000446012380F8D433006801F0A2FA002039
:100DB80084F8D40310BD02207047002842D030B513
:100DC80083B00446056890F8D533BBB1032384F893
:100DD800D533B5F1A04F16D0206801F04EF8237C2A
:100DE8008DF80030231D0ECB206800F0F7FF68B1A6
:100DF800022384F8D533012003B030BD80F8D43302
:100E0800FFF754FDE2E70023A371E5E7012120681D
:100E180001F0CCF820B1022384F8D5330120EBE7A8
:100E2800237C8DF80030231D0ECB206801F0F0F8EC
:100E380018B9012384F8D533DEE7022384F8D533C3
:100E48000120D9E701207047F8B59DF81850BDF882
:100E58002060C1EB011400EB8404E27584F82630AD
:100E680085B9C1EB011400EB8404032784F82A70C8
:100E78009DF824706776032B00F2B080DFE803F05A
:100E88000AA74B79C1EB011400EB8404022784F80C
:100E98002A70F0E7012D40F0A180F2B936B9C1EB14
:100EA800011300EB8303012283F83D20C1EB0113FA
:100EB80000EB830393F83D303BB9C1EB011300EB22
:100EC8008303002283F82A2088E0C1EB011300EB9A
:100ED8008303022283F82A2080E0C1EB011300EB90
:100EE80083039B7E012B79D1C1EB011300EB8303B4
:100EF80093F83C303BB9C1EB011300EB83030022AC
:100F080083F82A206AE0C1EB011300EB8303022275
:100F180083F82A2062E0AAB9C1EB011300EB83032E
:100F280093F83D3033B9C1EB011300EB830383F829
:100F38002A2053E0C1EB011300EB8303022283F85C
:100F48002A204BE0C1EB011300EB830393F83C30FC
:100F58003BB9C1EB011300EB8303002283F82A207D
:100F68003CE0C1EB011300EB8303022283F82A2043
:100F780034E0AAB9C1EB011300EB830393F83D30C9
:100F880033B9C1EB011300EB830383F82A2025E072
:100F9800C1EB011300EB8303022283F82A201DE032
:100FA800C1EB011300EB830393F83C303BB9C1EB71
:100FB800011300EB8303002283F82A200EE0C1EB23
:100FC800011300EB8303022283F82A2006E0C1EB19
:100FD800011300EB8303002283F82A20C1EB0113DD
:100FE80000EB8303079ADA625E63002283F84C20E1
:100FF8009A63597583F84D20C1EB011189001031AE
:10100800014482790431006801F004FAF8BD30B572
:1010180083B004460568D5F840340193D5F84034C8
:101028000093009B23F02E030093019B13F0020F03
:1010380007D0019B13F0010F25D1009B43F0020359
:101048000093019B13F0080F10D0009B43F0080396
:101058000093019B13F0040F2DD0637A022B15D057
:10106800E379012B22D02046FFF77FFC019B13F088
:10107800200F03D0009B43F020030093009BC5F88A
:10108800403403B030BDFFF763FCD6E7019B03F49F
:10109800C023B3F5802F04D00121206801F038F86F
:1010A800E1E70221206801F033F8DCE74EF6602220
:1010B800C5F80424D7E72046FFF75DFCD6E7F8B566
:1010C80005460C460668304600F063FF10F0040F32
:1010D80021D006EB44130422C3F80825C4EB0413FB
:1010E80005EB8303072283F84D202146286801F089
:1010F80000F92146286800F04CFF10F4007F6CD0FE
:101108002146286801F0F5F806EB44144FF4007303
:10111800C4F80835F8BD2146286800F03AFF10F4F5
:10112800807F11D006EB44134FF48072C3F8082572
:10113800C4EB041305EB8303082283F84D202146F2
:10114800286801F0D6F8D4E72146286800F021FF86
:1011580010F0080F10D006EB44130822C3F8082536
:10116800C4EB041305EB8303062283F84D202146C4
:10117800286801F0BEF8BCE72146286800F009FF9E
:1011880010F4806F11D006EB44134FF48062C3F85B
:101198000825C4EB041305EB8303092283F84D20CB
:1011A8002146286801F0A5F8A3E72146286800F041
:1011B800F0FE10F0800F9CD006EB44138022C3F899
:1011C8000825C4EB041305EB8303072283F84D209D
:1011D8002146286801F08DF88BE72146286800F041
:1011E800D8FE10F0010F75D006EB441606F5A0677F
:1011F8002023BB60C4EB041305EB8303DB7E012BC8
:1012080030D0AB794BB1C4EB041305EB83031A6BF5
:101218003969C1F31201521A9A63C4EB041305EB3E
:101228008303012283F84D2000215964BA6093F8A2
:10123800263013B3022B20D0032B01D0012B22D14F
:10124800D6F8003543F00053C6F80035C4EB041354
:1012580005EB8303012283F84C2021462846FFF73B
:1012680083FB10E0C4EB041305EB83030022DA765A
:101278007B6823F480337B60C3E72146286801F04C
:1012880038F81023BB60AB79012B0AD0C4EB0413E8
:1012980005EB830393F83C2082F0010283F83C209D
:1012A80038E7C4EB041205EB8202936B128D1344EA
:1012B800013BB3FBF2F313F0010F3FF42BAFC4EB88
:1012C800041305EB830393F83C2082F0010283F8B2
:1012D8003C201FE72146286800F05BFE10F0200F35
:1012E8001ED006EB44162023C6F80835C4EB0413B9
:1012F80005EB83039B7E012B7FF40CAFC4EB041337
:1013080005EB83030122DA76C4EB041305EB8303B0
:10131800032283F84D202146286800F0EAFFF9E609
:101328002146286800F035FE10F0020F00F01D81FC
:1013380006EB441606F5A06202239360C4EB04137F
:1013480005EB830393F84D30012B13D0062B26D0E1
:10135800072B2FD0092B2DD0052B68D0032B00F09D
:10136800B480042B00F0DC80082B00F0F180022B05
:101378000AD1CFE6C4EB041305EB8303022283F8FA
:101388004D20012283F84C20C4EB041305EB8303A2
:1013980093F84C2021462846FFF7E6FABAE6C4EB54
:1013A800041305EB8303022283F84D20052283F8FA
:1013B8004C20E9E7C4EB041305EB8303022183F80F
:1013C8004D10596C0131596402291BD9C4EB04131F
:1013D80005EB8303002159649B7E012B07D0C4EBE6
:1013E800041305EB8303042283F84C20CCE7C4EBF9
:1013F800041305EB8303D9761977536823F48033F4
:101408005360ECE7C4EB041305EB8303022283F873
:101418004C2093F826300BB19342B5D1D6F800355D
:1014280023F0804343F00043C6F80035ACE7C4EB33
:10143800041305EB8303022183F84D10DB7E012B97
:10144800A2D13C2303FB045393F82630032B16D078
:101458003C2303FB0453022283F84C203C2303FB68
:10146800045393F826300BB1022B8DD1D6F80035F2
:1014780023F0804343F00043C6F8003584E73C215D
:1014880001FB04518B6C01338B64022B16D90B467C
:1014980000219964D9765B6C022B04D83C2303FBAA
:1014A800045301211977536823F4803353603C2394
:1014B80003FB0453042283F84C20CFE73C2303FBAF
:1014C8000453022283F84C20C8E7C4EB041305EB4D
:1014D8008303022183F84D10DB7E012B7FF454AF88
:1014E8003C2303FB045383F84C10516841F48031CA
:1014F8005160D16841F04001D160D16821F02001EC
:10150800D16093F8263013B1022B7FF43DAFD6F8A3
:10151800003523F0804343F00043C6F8003533E735
:10152800C4EB041305EB8303022283F84D2083F8F0
:101538004C2093F8263013B193427FF425AFD6F8A8
:10154800003523F0804343F00043C6F800351BE71D
:101558003C2303FB0453022283F84D205A6C0132CA
:101568005A64042283F84C200EE72146286800F0CC
:1015780010FD10F0400F18D006EB44134022C3F8BA
:101588000825C4EB041305EB8303052283F84D20DB
:101598009B7E2BB9C4EB041305EB830300225A642A
:1015A8002146286800F0A5FEB4E52146286800F029
:1015B800F0FC10F0100F3FF4ADADC4EB041305EBD5
:1015C800830393F82630032B28D00BB1022B18D1B4
:1015D800C4EB041305EB830300225A64AB7933B1DF
:1015E800C4EB041305EB8303DB7E012B09D13C23F9
:1015F80003FB0453042283F84D202146286800F099
:1016080078FEC4EB041305EB8303DB7E012B12D0B9
:1016180006EB44131022C3F808257BE53C2303FBA3
:10162800045300225A64042283F84D202146286876
:1016380000F05FFEE5E7C4EB041305EB8305002328
:10164800EB7606EB4413D3F8042522F48032C3F872
:101658000425D3F80C2542F02002C3F80C25D7E75F
:1016680070B505460C460668304600F092FC10F04E
:10167800040F10D006EB44160423C6F80835C4EB53
:10168800041305EB8303072283F84D2021462868BD
:1016980000F02FFE70BD2146286800F07AFC10F09B
:1016A800200F4AD006EB44162023C6F80835C4EBB1
:1016B800041305EB83035B7E012B2DD0C4EB0413CD
:1016C80005EB83039B7E012BE4D1C4EB041305EBEC
:1016D8008303DB7E002BDDD1C4EB041305EB83030E
:1016E80093F82630012B05D0C4EB041305EB8303D4
:1016F8000122DA762601C4EB041305EB83030322E7
:1017080083F84D202146286800F0F3FD341B05EBD3
:10171800840500236B64BDE7C4EB041305EB830366
:1017280000225A76022283F84C20032283F84D20A7
:101738002146286800F0DDFDC0E72146286800F052
:1017480028FC10F4007F0AD006EB44164FF400730F
:10175800C6F808352146286800F0CBFD9AE72146EF
:10176800286800F016FC10F0010F3BD0C4EB0413FE
:1017780005EB830300225A642146286800F009FC1F
:1017880010F0400F0AD0C4EB041305EB83030122C9
:101798005A7606EB44134022C3F80825C4EB041319
:1017A80005EB8303DB7E6BB1C4EB041305EB83030A
:1017B8000022DA7606EB4413D3F8042522F48032AB
:1017C800C3F8042506EB44160122C6F80825C4EB25
:1017D800041305EB830383F84D202146286800F0A5
:1017E80088FD57E72146286800F0D3FB10F0400F2A
:1017F8001ED0C4EB041305EB8303052283F84D20A8
:101808009B7E2BB9C4EB041305EB830301225A76A4
:10181800C4EB041305EB830300225A6421462868AD
:1018280000F067FD06EB44144023C4F8083531E79F
:101838002146286800F0ADFB10F0080F10D006EB29
:1018480044130822C3F80825C4EB041305EB8303EB
:10185800062283F84D202146286800F04AFD19E742
:101868002146286800F095FB10F0100F20D0C4EB3B
:10187800041305EB830300225A64042283F84D20E5
:101888005B7E5BB9C4EB041305EB83031B7E2BB9AA
:10189800C4EB041305EB830301225A76214628681A
:1018A80000F027FD06EB44131022C3F80825F1E6E3
:1018B8002146286800F06DFB10F0800F38D0AB7916
:1018C800F3B1C4EB041205EB8202536C0133536489
:1018D800022B20D83C2303FB0455022385F84C3007
:1018E80006EB4412D2F8003523F0804343F000435E
:1018F800C2F8003506EB44138022C3F80825C9E670
:101908003C2303FB0453072283F84D202146286813
:1019180000F0EFFCEEE73C2303FB045300225A647B
:10192800042283F84C2021462846FFF71DF8E1E7FA
:101938002146286800F02DFB10F4806F10D03C235E
:1019480003FB0453092283F84D202146286800F040
:10195800D0FC06EB44134FF48062C3F8082599E6DF
:101968002146286800F015FB10F0020F3FF492AEF4
:1019780006EB441606F5A062022393603C2303FBA2
:10198800045393F84D30012B23D0032B62D0042B42
:101998006FD0052B00F08280062B00F08880072B83
:1019A80002D0092B7FF476AE3C2303FB04530222BA
:1019B80083F84D205A6C01325A64022A40F2818021
:1019C8003C2303FB045300225A64042283F84C206E
:1019D8000EE03C2303FB0453022283F84D2001222E
:1019E80083F84C2093F82630023BDBB2934209D9A6
:1019F8003C2303FB045393F84C2021462846FEF76A
:101A0800B3FF47E6A97941B93C2303FB045393F894
:101A18003D2082F0010283F83D200129E8D13C23D2
:101A280003FB04535B6B002BE2D03C2202FB045205
:101A3800128D1344013BB3FBF2F313F0010FD7D01F
:101A48003C2303FB045393F83D2082F0010283F802
:101A58003D20CDE73C2303FB0453022283F84D20AD
:101A6800DB7E012BC4D13C2303FB045383F84C20B9
:101A7800BEE73C2303FB0453022183F84D1083F88F
:101A88004C10DB7E012BB3D13C2303FB0453002114
:101A9800D976536823F480335360A9E73C2303FBCA
:101AA8000453022283F84D2083F84C20A0E73C23FE
:101AB80003FB0453022283F84D20052283F84C20AF
:101AC80096E73C2303FB0453022283F84C20D6F804
:101AD800003523F0804343F00043C6F8003587E71C
:101AE800F8B504460568284600F05CFA012800D0DD
:101AF800F8BD2E46206800F048FA0028F8D0206883
:101B080000F043FA10F4001F03D023684FF40012CA
:101B18005A61206800F039FA10F4801F03D0236856
:101B28004FF480125A61206800F02FFA10F0806F8D
:101B380003D023684FF080625A61206800F025FACC
:101B480010F0020F02D0236802225A61206800F0C8
:101B58001CFA10F0005F08D023684FF000525A6159
:101B6800D5F8403413F0010F25D0206800F00DFAA5
:101B780010F0807F32D1206800F007FA10F0080FCB
:101B880030D1206800F001FA10F0007F31D12068D0
:101B980000F0FBF910F0100FAAD02268936923F027
:101BA800100393612046FFF7A3F82268936943F076
:101BB800100393619CE71021284600F064F9284639
:101BC80000F086F9637A022B03D02046FEF7C6FEA2
:101BD800CBE70121206800F09BFAF6E72046FFF7E3
:101BE80016FAC8E72046FEF7ADFE236808225A61B8
:101BF800C7E7206800F078FB0746002504E0E9B253
:101C08002046FFF72DFD01356379AB4212D905F067
:101C18000F0327FA03F313F0010FF4D006EB451373
:101C2800D3F8003513F4004FE9D0E9B22046FFF7A6
:101C380046FAE8E723684FF000725A61A7E790F880
:101C4800D433012B0ED010B50446012180F8D413EB
:101C5800006800F07EFA206800F009F9002084F896
:101C6800D40310BD0220704790F8D433012B0BD059
:101C780010B50446012380F8D433006800F024FD31
:101C8800002084F8D40310BD02207047C1EB011175
:101C980000EB810191F84C007047C1EB011100EB9A
:101CA8008101886B704708B5006800F080FA08BDAC
:101CB800C1EB011200EB820200209076D07682F808
:101CC800250082F8240070472DE9F04F85B01F46A3
:101CD8009DF838A09DF83C90BDF840B090F8D433FA
:101CE800012B54D005460C461646D846012380F8E9
:101CF800D433C1EB011300EB830300225A761F751E
:101D0800597583F8269006F07F029A75FFF7D0FF81
:101D180016F0800F29D1C4EB041305EB83030022CE
:101D2800DA75286800F038FAB9F1010F24D0C4EB4D
:101D3800041305EB830383F818A01FFA88F3C4EB98
:101D4800041205EB820213850293CDF80490CDF8B6
:101D580000A03B4632462146286800F02DFA0023B1
:101D680085F8D43305B0BDE8F08FC4EB041305EB58
:101D780083030122DA75D4E7BAF1010FD7D100281D
:101D8800D5D1BBF1BC0FD2D94FF0BC08CFE70220A8
:101D9800E8E782B000230193019B01330193019B83
:101DA800B3F1706F15D80369002BF5DA002301939E
:101DB800036943F001030361019B01330193019B14
:101DC800B3F1706F08D8036913F0010FF4D1002044
:101DD80000E0032002B070470320FBE784B010B591
:101DE800044603A880E80E009DF81130012B21D18C
:101DF800A36B23F48033A363E36823F4840323F001
:101E08004003E360E36823F44013E3609DF818306F
:101E1800012B0AD02046FFF7BCFF9DF80E30012B9E
:101E28001CD0BDE8104004B07047E36843F4801349
:101E3800E360EFE7E36843F04003E3602046FFF721
:101E4800A8FF9DF8153023B9A36B43F48033A3632F
:101E5800E3E7A36B23F48033A363DEE7A36843F0CF
:101E68000603A360A36843F02003A360D9E783684F
:101E780043F00103836000207047836823F0010367
:101E880083600020704782B000230193019B0133D7
:101E98000193019BB3F1706F15D80369002BF5DA34
:101EA80000230193890141F020010161019B013365
:101EB8000193019BB3F1706F08D8036913F0200FE9
:101EC800F4D1002000E0032002B070470320FBE7B4
:101ED80082B000230193019B01330193019BB3F16D
:101EE800706F13D80369002BF5DA002301931023D0
:101EF8000361019B01330193019BB3F1706F08D813
:101F0800036913F0100FF4D1002000E0032002B0A1
:101F180070470320FBE710B59DF8084084B90333E8
:101F28004FEA930E4FF0000C08E000EB023303F584
:101F3800805351F8044B1C600CF1010CF445F4D3A8
:101F4800002010BD10B5844608464FEA920E02F0F4
:101F58000302002305E00CF58051096840F8041BD2
:101F680001337345F7D37AB10CF5805CDCF8004097
:101F78000021CBB2DB0024FA03F300F8013B013166
:101F8800013A92B2002AF4D110BD4269806910402A
:101F9800704700EB411000F5A063D0F80805DB6836
:101FA80018407047406900F00100704738B5054691
:101FB800C36823F0C043C360012913D019BBC368A9
:101FC80043F08043C36000240A2001F0A3F90A34D7
:101FD8002846FFF7E7FF08B1C72CF5D9C82C14D05D
:101FE800002038BDC36843F00053C36000240A20B2
:101FF80001F090F90A342846FFF7D4FF0128EDD004
:10200800C72CF4D9EAE70120EBE70120E9E7000053
:1020180084B038B5044605A880E80E000023C4F84B
:10202800003EA36B43F40013A363A36B23F40023C4
:10203800A363A36B23F48023A363E36813F0400F27
:1020480011D19DF81730012B06D0D4F8003423F0B5
:102058000403C4F800340CE0D4F8003443F004035B
:10206800C4F8003405E0D4F8003423F00403C4F8BD
:10207800003410212046FFF706FF054600B1012570
:102088002046FFF725FF00B10125002209E004EBF7
:1020980042134FF0FF31C3F808150021C3F80C159F
:1020A80001329DF815309342F1D80023A3614FF017
:1020B800FF336361124B9C4217D08023636203F5A0
:1020C800C003A3620F4BC4F800319DF816301BB94A
:1020D800A36943F01003A361A2690B4B1343A361E7
:1020E8002846BDE8384004B070474FF40073636277
:1020F80003F18073A362054BC4F80031E5E700BF24
:1021080000000440E0004000080020A30003E000B5
:1021180000F5806CD0F8003423F00303C0F80034D5
:10212800D0F8003401F003021343C0F80034012949
:1021380007D002290BD141F27073CCF8043000208B
:1021480070474BF68033CCF80430002070470120EC
:10215800704782B000230193D0F840340193019B6B
:1021680023F02E030193019B13F4805F01D1012911
:102178000CD0019B13F4805F05D021B9019B23F497
:102188008053C0F84034002002B07047019B43F4EC
:102198008053C0F84034ECE782B000230193D0F8B4
:1021A800403401930198C0F3414002B0704700F5F4
:1021B8008060806880B270472DE9F84391461C46DC
:1021C8009DF8245000EB411606F5A0634FF0FF324E
:1021D8009A60032D7AD8DFE805F0026B021940F205
:1021E8009D42DA6019F0800F04D13E4A904207D030
:1021F800002712E0DA6842F48072DA6000270CE007
:10220800DA6842F06002DA60002706E040F29D6278
:10221800DA6019F0800F45D1002700225A60DA6889
:1022280042F00202DA60D0F8183401F00F010122FE
:102238008A401343C0F81834836943F000738361FC
:1022480019F0800F44D14FF00008FFF7A5FF9DF863
:102258002030022B3FD00022A30503F0FE534FEAA3
:10226800C92909F4F04943EA0903A90401F4402102
:102278000B43BDF82810C1F30A010B4343EA0803D6
:10228800134343F48013C6F80035032D01D0012D04
:1022980005D1D6F8003543F00053C6F80035384666
:1022A800BDE8F883DA6842F48072DA600027B4E7A0
:1022B80040F22522DA6019F0800F01D10027ACE73F
:1022C800DA6842F4C072DA600027A6E70127A4E7BB
:1022D8004FF40048B9E7022802D04FF40032BBE7B8
:1022E8000022B9E70000044000F58060406980B230
:1022F800704770B483B00023019300EB411101F5DE
:10230800A062D1F80035C3F38143D1F80055546871
:10231800866816F0200F08D0ED0FE40F2CB9002DB9
:102328005AD0012B58D0032B56D01BB3022B21D0E7
:10233800D1F8003543F08043C1F80035D0F81034A7
:1023480013F47F0F4CD1D1F8003523F00043C1F8C6
:102358000035D1F8003543F00043C1F80035019B42
:1023680001330193019BB3F57A7F35D81368002BAD
:10237800F5DB31E0D1F8003543F08043C1F8003592
:10238800836813F0200F21D1C36A13F47F0F16D18D
:10239800D1F8003523F00043C1F80035D1F80035F5
:1023A80043F00043C1F80035019B01330193019BC1
:1023B800B3F57A7F10D81368002BF5DB0CE0D1F861
:1023C800003543F00043C1F8003505E0D1F8003589
:1023D80043F00043C1F80035002003B070BC7047DB
:1023E800D1F8003543F00043C1F80035F4E70000A8
:1023F80000EB4110064AC0F81025D0F8003523F04C
:10240800804343F00043C0F800350020704700BF08
:102418000000088070B584B04B78A34CA04216D059
:102428008C79012C2DD00D6A002D5ED0B1F814C026
:1024380005EB0C04013CB4FBFCF4A4B2B4F5807FBA
:1024480054D94FEA0C24CC614FF480744EE0012A31
:1024580007D08C88B4F5807FE2D11946FFF7C8FF12
:102468001EE18C7C0CB1022CDAD18C79002CD7D1EE
:1024780000EB4314D4F80C5525F07005C4F80C553E
:10248800CEE7CC781CB18C8ACC61012435E08C7CF9
:10249800012C05D0012A21D00C6ACC6101242CE042
:1024A8000C6ABC2C0DD98C8ACC610C62CC68013CBE
:1024B800012C02D90124CC601FE00224CC60012445
:1024C8001BE0CC61CC68013C012C03D90424CC600E
:1024D800012412E00324CC6001240EE00D6A8C8AEA
:1024E800A542D9D9CC61012407E00124CE78002E79
:1024F80060D08D8A04FB05F5CD61CD69C5F3120C5A
:102508006A4D05EAC4444CEA040C8C7D640704F067
:10251800C04400EB431303F5A06E4CEA0404CEF864
:10252800104012B18C69CEF8144000F58065AC6893
:1025380014F0010F0CBF4FF0010C4FF0000CD3F852
:10254800004524F00054C3F80045D3F8004544EA98
:102558004C74C3F800458C79012C2DD00024CEF89A
:102568000440D3F800450394039C24F0804403946A
:10257800CC78002C7DD0039C44F400440394039C45
:1025880044F000440394039CC3F80045002A40F03B
:102598008780CB78002B40F083800B6A002B7FD09C
:1025A800CA79002A7CD18A7C032A72D8DFE802F033
:1025B80066806680CD61A0E74E7C0C7C44EAC61438
:1025C80044F00044CEF80440DEF80C4044F06004C7
:1025D800CEF80C40CC79012C12D08C7C012C1FD069
:1025E800032C1DD08C7C012CBBD1CC78002CB8D10D
:1025F800CC68013C032CB4D8DFE804F01F262D3446
:10260800CC78002CE9D1DEF8044044F48034CEF8CC
:102618000440DEF80C4044F04004CEF80C40DCE7FF
:10262800CC79012CDED1CC78012CDBD1DEF804404A
:1026380044F48034CEF80440D4E7DEF8044044F48F
:102648000044CEF804408CE7DEF8044044F00E0461
:10265800CEF8044085E7DEF8044044F48044CEF820
:1026680004407EE7DEF8044044F44044CEF80440D9
:1026780077E7039C24F40044039480E70333C26A99
:1026880092B2C3F38F03934203D9836943F02003C3
:102698008361002300930B8C4A788969FFF73BFC20
:1026A800002004B070BD00BF000004400000F81F07
:1026B80003332A6992B2C3F38F039A42E9D283693A
:1026C80043F080638361E4E730B583B004460023B8
:1026D8000193FFF7D2FB10212046FFF7D4FB0546F4
:1026E80000B101252046FFF7F3FB00B101250022C8
:1026F8000AE004EB4211D1F8003523F0802343F0BF
:102708008043C1F8003501320F2AF2D9002100E0D8
:1027180001310F2916D804EB411000F5A062D0F85A
:10272800003523F4004343F04043C0F80035019BD3
:1027380001330193019BB3F57A7FE9D81368002B25
:10274800F5DBE5E74FF0FF33C4F814346361204646
:10275800FFF78DFB284603B030BD0000002800F0CD
:10276800E08170B582B00446036813F0010F3BD0D6
:102778009F4B9B6803F00C03042B2CD09C4B9B684D
:1027880003F00C03082B21D06368B3F5803F4FD0CA
:10279800B3F5A02F52D0964B1A6822F480321A60F3
:1027A8001A6822F480221A606368002B50D000F067
:1027B800ABFD05468E4B1B6813F4003F14D100F0A7
:1027C800A3FD401B6428F5D90320B1E1884B5B6861
:1027D80013F4800FD8D0864B1B6813F4003F03D046
:1027E8006368002B00F09F81236813F0020F54D018
:1027F8007F4B9B6813F00C0F3ED07D4B9B6803F01A
:102808000C03082B33D0E368002B68D0794B0122E6
:102818001A6000F079FD0546754B1B6813F0020F2E
:1028280054D100F071FD401B0228F5D903207FE147
:102838006F4A136843F480331360B5E76C4B1A682A
:1028480042F480221A601A6842F480321A60ABE7B8
:1028580000F05AFD0546664B1B6813F4003FC3D0D1
:1028680000F052FD401B6428F5D9032060E1604B5D
:102878005B6813F4800FC6D15D4B1B6813F0020F21
:1028880003D0E368012B40F05081594A136823F0C4
:10289800F803216943EAC1031360236813F0080FA2
:1028A80042D063696BB3534B0122C3F8802E00F00A
:1028B8002BFD05464E4B5B6F13F0020F34D100F031
:1028C80023FD401B0228F5D9032031E1484A13684B
:1028D80023F0F803216943EAC1031360DDE7454BA0
:1028E80000221A6000F010FD0546414B1B6813F0EA
:1028F800020FD2D000F008FD401B0228F5D90320B2
:1029080016E13C4B0022C3F8802E00F0FDFC054682
:10291800374B5B6F13F0020F06D000F0F5FC401B3D
:102928000228F5D9032003E1236813F0040F77D0B8
:102938002F4B1B6C13F0805F33D1002301932C4B7A
:102948001A6C42F080521A641B6C03F08053019396
:10295800019B0125284B1B6813F4807F23D0A368B3
:10296800012B34D0052B38D0214B1A6F22F00102ED
:102978001A671A6F22F004021A67A368002B3DD069
:1029880000F0C2FC06461A4B1B6F13F0020F46D12B
:1029980000F0BAFC801B41F288339842F3D9032037
:1029A800C6E00025D6E7144A136843F48073136021
:1029B80000F0AAFC0646104B1B6813F4807FCED1AA
:1029C80000F0A2FC801B0228F5D90320B0E0084AD9
:1029D800136F43F001031367CFE7054B1A6F42F0FB
:1029E80004021A671A6F42F001021A67C5E700BFAE
:1029F80000380240000047420070004000F084FCAC
:102A08000646524B1B6F13F0020F08D000F07CFCF7
:102A1800801B41F288339842F3D9032088E0EDB94E
:102A2800A369002B00F08380484A926802F00C02E8
:102A3800082A51D0022B17D0454B00221A6600F005
:102A480063FC0446414B1B6813F0007F42D000F042
:102A58005BFC001B0228F5D9032069E03B4A136C94
:102A680023F080531364DBE7394B00221A6600F029
:102A78004BFC0546354B1B6813F0007F06D000F071
:102A880043FC401B0228F5D9032051E0E369226A80
:102A98001343626A43EA8213A26A5208013A43EA7C
:102AA8000243E26A43EA0263284A5360284B012240
:102AB8001A6600F029FC0446244B1B6813F0007FBB
:102AC80006D100F021FC001B0228F5D903202FE0D5
:102AD80000202DE000202BE0012B2BD01B4B5B6846
:102AE80003F48001E269914226D103F03F02216A92
:102AF8008A4223D1616A47F6C0721A40B2EB811F3D
:102B08001ED103F44031A26A5208013AB1EB024FD8
:102B180018D103F07063E26AB3EB026F14D100209E
:102B280006E001207047012002E0012000E00020BB
:102B380002B070BD0120FBE70120F9E70120F7E7AB
:102B48000120F5E70120F3E70120F1E70038024012
:102B58000000474208B5334B9B6803F00C03042B75
:102B68005BD0082B5BD12F4B5A6802F03F025B68A1
:102B780013F4800F2CD02B4B5868C0F388104FEA01
:102B8800401CBCEB000C6EEB0E0E4FEA8E1343EAB2
:102B98009C634FEA8C11B1EB0C0163EB0E03DB0075
:102BA80043EA5173C90011EB000C43F100035902C9
:102BB80000234FEA4C2041EADC51FDF701FB194B99
:102BC8005B68C3F3014301335B00B0FBF3F008BD5E
:102BD800144B5868C0F388104FEA401CBCEB000C3B
:102BE8006EEB0E0E4FEA8E1343EA9C634FEA8C118C
:102BF800B1EB0C0163EB0E03DB0043EA5173C90030
:102C080011EB000C43F10003990200234FEA8C20DA
:102C180041EA9C51FDF7D4FAD1E70348D7E70348C6
:102C2800D5E700BF0038024000127A000024F40003
:102C3800002800F09B8070B50D4604464F4B1B687A
:102C480003F007038B4208D2CBB24C4A13701368C7
:102C580003F007038B4240F08B80236813F0020FC8
:102C680017D013F0040F04D0454A936843F4E05397
:102C78009360236813F0080F04D0414A936843F423
:102C8800604393603E4A936823F0F003A1680B43C6
:102C98009360236813F0010F32D06368012B21D0B1
:102CA8009A1E012A25D9364A126812F0020F61D0FD
:102CB80033498A6822F0030213438B6000F024FB37
:102CC80006462F4B9B6803F00C036268B3EB820F38
:102CD80016D000F019FB801B41F288339842F0D9D6
:102CE800032042E0264A126812F4003FE0D1012096
:102CF8003BE0234A126812F0007FD9D1012034E06A
:102D08001E4B1B6803F00703AB4207D9EAB21B4B03
:102D18001A701B6803F00703AB422DD1236813F028
:102D2800040F06D0164A936823F4E053E1680B4376
:102D38009360236813F0080F07D0114A936823F4AF
:102D48006043216943EAC1039360FFF703FF0C4B1B
:102D58009B68C3F303130B4AD35CD8400A4B186033
:102D68000A4B186800F084FA002070BD01207047F3
:102D78000120FAE70120F8E70120F6E7003C0240CD
:102D8800003802405C4800080800002004000020C9
:102D9800014B1868704700BF0800002008B5FFF70E
:102DA800F7FF044B9B68C3F38223034AD35CD840E4
:102DB80008BD00BF003802405448000830B583B051
:102DC8000446036813F0050F06D1236813F0020FB9
:102DD8002ED1002003B030BD4A4B00229A6600F085
:102DE80093FA0546484B1B6813F0006F06D000F0B5
:102DF8008BFA431B022BF5D90320EBE76268A36823
:102E08001B0743EA8213404AC2F884303D4B012233
:102E18009A6600F079FA05463B4B1B6813F0006F81
:102E2800D3D100F071FA431B022BF5D90320D1E767
:102E380000230193344B1A6C42F080521A641B6CC5
:102E480003F080530193019B304A136843F4807365
:102E5800136000F059FA05462C4B1B6813F4807F69
:102E680006D100F051FA431B022BF5D90320B1E734
:102E7800254B1B6F13F4407314D0E26802F44072C0
:102E88009A420FD0204B1A6F22F440721D4901203C
:102E9800C1F8400E0020C1F8400E1A671B6F13F0EE
:102EA800010F13D1E36803F44072B2F5407F1ED0DE
:102EB800154A936823F4F813936013490B6FE2687B
:102EC800C2F30B0213430B67002083E700F01CFAE0
:102ED80005460D4B1B6F13F0020FE3D100F014FAF7
:102EE800401B41F288339842F3D9032072E7064920
:102EF8008A6822F4F81223F0704323F440731343D2
:102F08008B60DAE70000474200380240007000405A
:102F1800012801D000207047154B9B6813F400036B
:102F280002D01BB313487047114B5B6813F4800F32
:102F380014D00F4B5A6802F03F020F4BB3FBF2F369
:102F48000B4AD2F88400C0F3881003FB00F0D2F8D3
:102F58008430C3F30273B0FBF3F07047044B5A6834
:102F680002F03F02054BB3FBF2F3E9E7002070479C
:102F7800003802400080BB0000127A000024F400F0
:102F880000230F2B00F2E98070B582B065E08568F8
:102F98004FEA430E032404FA0EF425EA0405CC682C
:102FA80004FA0EF42C438460446824EA02044A6854
:102FB800C2F300129A40224342605CE0DC08083405
:102FC80050F8242003F00705AD004FF00F0E0EFA5D
:102FD80005FE22EA0E0E0A69AA4042EA0E0240F8ED
:102FE80024205CE0072200E0002202FA0EF22A43C5
:102FF80002345A4D45F82420594A94686FEA0C0265
:1030080024EA0C054E6816F4801F01D04CEA04052A
:10301800534CA560E46802EA04054E6816F4001FE4
:1030280001D04CEA04054E4CE560646802EA0405E8
:103038004E6816F4003F01D04CEA0405484C656020
:10304800246822404D6815F4803F01D04CEA040200
:10305800434C226001330F2B7DD801229A400C6823
:1030680004EA020C32EA0404F4D14C6804F00304C4
:10307800013C012C8BD94A6802F00302032A09D0CB
:10308800C4685D000322AA4024EA02048A68AA40B0
:103098002243C2604A6802F00302022A8ED0046802
:1030A8004FEA430E032202FA0EF224EA02044A68A7
:1030B80002F0030202FA0EF2224302604A6812F496
:1030C800403FC7D000220192264A546C44F4804401
:1030D8005464526C02F480420192019A9C08A51C27
:1030E8001E4A52F8255003F0030E4FEA8E0E0F22A7
:1030F80002FA0EF225EA02051B4A90423FF474AF29
:1031080002F5806290421AD002F58062904218D08F
:1031180002F58062904216D002F58062904214D087
:1031280002F58062904212D002F58062904210D07F
:1031380002F5806290423FF455AF082255E701221C
:1031480053E7022251E703224FE704224DE7052205
:103158004BE7062249E702B070BD704700380140CE
:10316800003C014000380240000002400AB1816181
:103178007047090481617047002807DB00F01F02CF
:10318800400901239340024A42F82030704700BFAB
:1031980000E100E0002808DB0901C9B200F1604045
:1031A80000F5614080F80013704700F00F00090136
:1031B800C9B2014B1954704714ED00E000B500F096
:1031C8000700C0F1070CBCF1040F28BF4FF0040C36
:1031D800031D062B0FD9C31E4FF0FF3E0EFA0CF04D
:1031E80021EA000199400EFA03FE22EA0E0241EAA2
:1031F80002005DF804FB0023EEE70000074AD368ED
:1032080023F4E0631B041B0C000200F4E06003439A
:1032180043F0BF6343F40033D360704700ED00E030
:1032280010B50446054BD868C0F30220FFF7C6FF67
:1032380001462046FFF7AEFF10BD00BF00ED00E0DD
:1032480008B5FFF799FF08BD0138B0F1807F0BD2B0
:103258004FF0E0235861054AF02182F8231000203E
:10326800986107221A6170470120704700ED00E05D
:1032780010B504460E4B1A784FF47A73B3FBF2F389
:103288000C4A1068B0FBF3F0FFF7DEFF68B90F2CAB
:1032980001D901200AE0002221464FF0FF30FFF754
:1032A800BFFF054B1C60002000E0012010BD00BFDF
:1032B80000000020080000200400002008B50B4B87
:1032C8001A6842F400721A601A6842F480621A603E
:1032D8001A6842F480721A600320FFF78FFF0020FB
:1032E800FFF7C6FFFDF714FC002008BD003C0240B4
:1032F800034A1168034B1B780B441360704700BFE7
:103308009001002000000020014B1868704700BFA2
:103318009001002038B50446FFF7F6FF0546B4F1E2
:10332800FF3F02D0044B1B781C44FFF7EDFF401B06
:10333800A042FAD338BD00BF00000020002800F0EA
:10334800CC8070B5044690F83D30002B77D024230C
:1033580084F83D302268136823F001031360226863
:10336800136843F4004313602268136823F400438E
:103378001360FFF713FD62685A4B9A4264D85A4BA0
:1033880098428CBF00230123002B40F0A8805749A6
:10339800A1FB00318B0C25686A6822F03F0242EAE3
:1033A80091426A6021680A6A22F03F0266684D4DC0
:1033B800AE424FD8013313430B622168CA6922F425
:1033C8004F4222F0FF026568464B9D424CD8431E8F
:1033D8006D00B3FBF5F3013340F6FC70034278D07F
:1033E800C3F30B031A43CA6121680B6823F0C003B7
:1033F800E269206A024313430B6021688B6823F457
:10340800034323F0FF032269E068024313438B6000
:103418002168CB6823F0FF036269A0690243134364
:10342800CB602268136843F0010313600020206416
:10343800202384F83D30206384F83E0070BD80F876
:103448003C30FDF785FB82E7294B98428CBF00236F
:10345800012399E74FF4967505FB03F3254DA5FB6A
:1034680003539B090133A6E7A668BEB9431E05EBC3
:10347800450CB3FBFCF30133C3F30B03B3FA83F33B
:103488005B0943BBC6B9431E05EB4505B3FBF5F322
:103498000133C3F30B0343F40043A3E7431E05EBD7
:1034A800850C0CEB8C0CB3FBFCF30133C3F30B035F
:1034B800B3FA83F35B09E4E7431E05EB850505EBE7
:1034C8008505B3FBF5F30133C3F30B0343F4404322
:1034D80088E7042386E7012384E701207047012059
:1034E800ACE700BFA08601007F841E0083DE1B437B
:1034F800FF083D00D34D6210002800F0BE8038B5AB
:10350800044690F84130002B51D0022284F8412023
:103518002168CB6923F47B6323F00F03CB61236815
:103528001A626369934269D0E368002B46D110257B
:10353800A368202B00D86D000120FFF7E9FC236960
:10354800B3F5007F3CD0B0FBF5F000EB8000430002
:103558006269B3FBF2F30533494AA2FB0323C3F3C1
:10356800C002C2EBD3035B0811029A1EFD2A3FD8A2
:1035780022690A4321681A430A622168CB6923F445
:103588007B6323F00F036268A0680243E06802438C
:10359800A0690243134343F40063CB61236A012B00
:1035A8002ED000206064012384F8413038BD80F8B3
:1035B8004030344B4363FDF705FBA6E72025B7E70A
:1035C800E36853B1AD00B0FBF5F000EB80004300B9
:1035D8006269B3FBF2F30533BEE7ED00B0FBF5F02B
:1035E80000EB800043006269B3FBF2F30533B3E7F5
:1035F800636C43F0100363640120D7E70021B7E749
:10360800214B63632268214B9A421FD04FF040221E
:10361800D36923F47B6323F00F03D36122681B4B28
:103628009A4215D04FF04022022313622268174BAA
:103638009A420FD04FF04025EB699BB26268B2F511
:10364800007F09D0BAB94FF4807007E0104ADFE76D
:103658000F4AE9E70E4DEFE74FF48070B4F808C061
:10366800A189228B40EA0C0001430A43134343F427
:103678000063EB6195E70020F0E70120704700BF89
:10368800CDCCCCCC133700082539000800380040D1
:1036980000340040704708B5426A03681288DA604F
:1036A800436A02334362438D9BB2013B9BB243851D
:1036B800438D9BB203B108BD0268536823F0A00391
:1036C8005360012380F84130FFF7E4FFF3E77047C8
:1036D80008B50368DA68C36A1A80C36A0233C3622A
:1036E800438E9BB2013B9BB24386438E9BB203B190
:1036F80008BD0268536823F060035360012380F813
:103708004130FFF7E4FFF3E7704710B584B0044693
:1037180002689368039390F84130DBB2042B06D01B
:1037280094F84130DBB2032B2CD004B010BD039BBE
:1037380013F0010F03D0536813F0400F1FD1039B00
:1037480013F0400FECD023685A6812F0200FE7D02E
:103758005A6822F060025A60002301932368DA68ED
:1037680001929B680193019B012384F84130636CAB
:1037780043F0020363642046FFF7C6FFD0E7FFF774
:10378800A7FFDCE7039B13F0020F04D023685B68F4
:1037980013F0800F1DD1039B13F0080FC5D02368C9
:1037A8005A6812F0200FC0D05A6822F0A0025A605E
:1037B8000023029323689B680293029B012384F8E9
:1037C8004130636C43F0040363642046FFF79CFFB9
:1037D800ABE72046FFF75FFFDDE7704708B5436AB0
:1037E8009A1C426202681B88D360438D9BB2013BDE
:1037F8009BB24385438D9BB23BB90268536823F063
:10380800A0035360438E9BB203B108BD012380F827
:103818004130FFF7E2FFF8E708B50268154B9A4216
:103828001CD04FF04023DA68C36A991CC1621A8021
:10383800438E9BB2013B9BB24386438E9BB263B9D6
:1038480002680C4B9A420CD04FF04022536823F088
:1038580060035360438D9BB22BB108BDA3F5806311
:10386800E1E7054AF2E7012380F84130FFF7B5FFA9
:10387800F3E700BF003800400034004008B5436A51
:103888009A1C42621A880168134B994218D04FF06B
:103898004023DA60438D9BB2013B9BB24385438D45
:1038A8009BB263B902680C4B9A420CD04FF040228D
:1038B800536823F0A0035360438E9BB22BB108BD1D
:1038C800A3F58063E5E7054AF2E7012380F8413074
:1038D800FFF783FFF3E700BF0038004000340040E3
:1038E80008B50368DA68C36A991CC1621A80438EF6
:1038F8009BB2013B9BB24386438E9BB23BB90268A5
:10390800536823F060035360438D9BB203B108BD35
:10391800012380F84130FFF760FFF8E710B586B063
:10392800044603689A680592704A93426FD04FF034
:103938004022916804915B6803935368029363681B
:10394800B3F5007F01D0002B70D1059B13F0020F57
:1039580003D0039B13F0800F5CD1049B13F0010F7D
:1039680003D0029B13F0400F58D1049B13F0400F73
:1039780024D0029B13F0200F20D022685B4B9A4280
:1039880050D04FF04022536823F060035360226800
:10399800536823F0A0035360002300932368DA6878
:1039A80000929B680093009B012384F84130636C6C
:1039B80043F0020363642046FFF7A6FE059B13F05D
:1039C800080F22D0039B13F0200F1ED022685368E3
:1039D80023F0A00353602268444B9A4224D04FF04E
:1039E8004022536823F06003536000230193236847
:1039F8009B680193019B012384F84130636C43F079
:103A0800040363642046FFF77FFE06B010BDA2F5ED
:103A180080628EE72046FFF7E1FE9EE72046FFF72B
:103A2800FBFEA2E7324AAEE7314ADAE7049B13F01D
:103A3800020F03D0029B13F0800F4AD1059B13F0AD
:103A4800010F03D0039B13F0400F46D1059B13F0E1
:103A5800400F1CD0039B13F0200F18D02268536826
:103A680023F0600353602268204B9A4239D04FF00C
:103A78004022536823F0A0035360012384F84130A7
:103A8800636C43F0020363642046FFF73DFE049B2A
:103A980013F0080FB9D0029B13F0200FB5D022689D
:103AA800124B9A421FD04FF04022536823F0A003D4
:103AB80053602268536823F060035360012384F83D
:103AC8004130636C43F0040363642046FFF71CFE37
:103AD8009BE72046FFF7D2FEB0E72046FFF700FF3E
:103AE800B4E7034AC5E7024ADFE700BF00380040F1
:103AF8000034004000285AD010B50446436A33B950
:103B08004368B3F5827F05D00023C36102E0002338
:103B1800036143610023A36294F85130002B40D025
:103B2800022384F851302268136823F0400313609D
:103B3800636803F48273A26802F404421343E268E0
:103B480002F400621343226902F00202134362691D
:103B580002F001021343A26902F400721343E269FE
:103B680002F038021343226A02F080021343A26A69
:103B780002F40052216813430B60638B03F00403C3
:103B8800626A02F01002216813434B602268D3690D
:103B980023F40063D36100206065012384F8513069
:103BA80010BD84F850302046FDF76AF8B8E70120C8
:103BB80070470000034AD2F8883043F47003C2F813
:103BC8008830704700ED00E008B50378DBB20B2BB6
:103BD80000D008BDD0F87C33002BFAD09B699847F9
:103BE800F7E738B50446002306E003F1E00204EBEA
:103BF80082020021516001330F2BF6D9002304E023
:103C0800E218002182F81C110133B3F5007FF7D3C5
:103C18000025257065700123A370C4F8C45323766A
:103C28004022A271657684F81C5384F81D3384F809
:103C38001F5384F81E534FF48072294604F11C0068
:103C480000F05EFD4FF40072294604F58E7000F016
:103C580057FDC4F82653C4F82A53C4F82E53C4F8A1
:103C68003253A4F836533E22294604F54E7000F02C
:103C780047FD284638BDD8B170B50E46044680F8D1
:103C8800CC230025C0F87C53C0F88053FFF7A9FF68
:103C980084F8235384F8205384F8215384F822535A
:103CA8000EB1C4F8D4632046FCF76CFE002070BD4A
:103CB800022070470A4651B1D0F880334BB9591CDD
:103CC800C0F88013DE3340F823200020704702201C
:103CD80070470220704790F83C338B4203D980F834
:103CE8002413002070470220704710B504460020B6
:103CF8000BE04FF01A0C0CFB0E4E9EF849C39C4586
:103D08001CD0FF2B1AD00130C0B2012815D8864626
:103D18004FF01A0C0CFB004C9CF847C38C4501D0A3
:103D2800FF29F0D14FF01A0C0CFB0E4C9CF848C33D
:103D38009445DED0FF2AE6D1DBE7FF2010BD10B5A1
:103D48000446FCF784FE01212046FCF751FE0020C2
:103D580010BDC0F8C413704708B5D0F8C4230132A9
:103D6800C0F8C423FFF730FF08BD012380F82333D0
:103D78007047002380F8233370470346012280F8F8
:103D88002023002083F8210383F82203704738B5E5
:103D98000446012380F82133002580F8205380F859
:103DA8002353FCF75CFE2179204600F0BCF96179C9
:103DB800204600F0B8F9284638BD30B583B004462F
:103DC800057E6B1E0A2B00F2DC80DFE803F006108C
:103DD800354154617C889BA8BF00427900F11001ED
:103DE80000F009F902232376284603B030BD417953
:103DF800FCF7F8FD0546012805D0042818D002284C
:103E080016D00125F0E7237CE28A42B113F0800F37
:103E180002D105232376E7E703232376E4E713F0AB
:103E2800800F02D107232376DEE709232376DBE719
:103E38000B2323760125D7E7D0F8C433C381037950
:103E48008289816800F0FEF8042323760125CBE7F8
:103E58000179FCF7C7FD012806D0052800F09380FA
:103E6800042804D00125BFE709232376F8E70B23AC
:103E780023760125B8E70125009543798289816871
:103E880000F0CAF8D4F8C433E38106232376ABE7FD
:103E98004179FCF7A7FD0546431E042B75D8DFE8DA
:103EA80003F0030A740E0600072323769CE70C230D
:103EB8002376032598E705232376012594E70B232A
:103EC8002376022590E703790022114600F0BAF81C
:103ED800D4F8C433E38108232376012584E70179E4
:103EE800FCF780FD012805D0042807D005284ED00E
:103EF800012579E70D232376002575E70B23237623
:103F0800012571E70125009543790022114600F04B
:103F180083F8D4F8C433E3810A23237664E741792C
:103F2800FCF760FD012805D0022807D0042809D035
:103F3800012559E70D232376002555E70923237624
:103F4800012551E70B23237601254DE7437E0133F5
:103F5800DBB24376022B03D801250576857043E74B
:103F6800D0F8D43306219847002565766179204634
:103F780000F0D9F82179204600F0D5F825700225FF
:103F880032E7012530E703252EE701252CE7032535
:103F98002AE710B504468078012803D0022808D003
:103FA800012005E0A160A281012323760223A370EA
:103FB80010BD2046FFF701FF30B1032804D00228C6
:103FC800F6D10123A370F3E70123A370002323761E
:103FD800EEE708B58378012B04D000221146FFF7DD
:103FE800D8FF08BD022303740123437400234382CE
:103FF8008182C382F1E710B584B00B4611460024D4
:104008000394082202920193009423462246FCF767
:1040180049FD204604B010BD30B585B00C461946A0
:104028009DF8203090F81D5305B1002303930292A8
:1040380001940123009300231A46FCF733FD002066
:1040480005B030BD30B585B00D461946002403943F
:1040580002920195012200922346FCF723FD204697
:1040680005B030BD30B585B00C4619469DF82030F6
:1040780090F81D5305B10023039302920194012384
:10408800009302230022FCF70DFD002005B030BD8F
:1040980030B585B00D461946002403940292019567
:1040A800012200920223FCF7FDFC204605B030BD3A
:1040B80000230F2B0CD803F1E00200EB82025268B8
:1040C80012F4004F02D00133DBB2F2E71846704712
:1040D8004FF6FF70704710B584B0BDF820400294C9
:1040E8009DF81C4001949DF818400094FCF7BFFC13
:1040F800002004B010BD08B5FCF7CCFC002008BDBA
:1041080038B504460D46FFF7D3FF4FF6FF739842C4
:1041180007D000F00F0345F40045E03304EB8304B7
:104128006560C0B238BD0F2906D8E03100EB8100C8
:104138004368C3F30E0343600020704700207047B4
:1041480008B521220274202242740022428282820F
:104158000722C282FFF71DFF08BD08B5A12202741D
:10416800212242740022428282820722C282FFF701
:1041780010FF08BD38B50446D0F87C33D969403102
:10418800FFF7EBFF054620B9D4F8D43302212046C7
:104198009847284638BD38B50446D0F87C33DD69E1
:1041A800297879B9297BB1B9697BF1B9D4F87C331D
:1041B800D86928B100F0EEF9D4F87C330022DA612E
:1041C800002038BDFFF797FF29782046FFF7ABFF9F
:1041D80000232B70E6E72046FFF78DFF297B20465A
:1041E800FFF7A1FF00232B73DEE72046FFF783FFCD
:1041F800697B2046FFF797FF00236B73D6E7F0B57E
:1042080085B00446012302221146FFF76EFD0128FE
:1042180000F2AE80064601462046FFF75CFD0746E1
:10422800002840F0A980D4F87C53502000F0AAF967
:10423800E861D4F87C33DD69002D00F09F805022BE
:104248000021284600F05CFA1A2303FB064393F882
:104258004E2393F94E33002B72DB69782046FFF723
:104268004FFF014628706A786B89029303230193F4
:1042780094F81D33009394F81C332046FFF72BFF66
:10428800002229782046FCF7C1FB00231A460A21A0
:104298002046FFF72AFD012872D81A2303FB0043A2
:1042A80093F84E2393F94E33002B51DBAA731A234C
:1042B80003FB0043B3F850332B831A2303FB00435B
:1042C80093F8562393F95633002B49DBAA731A2324
:1042D80003FB0040B0F858332B83A97B2046FFF737
:1042E8000FFF6873E97B2046FFF70AFF2873AA7B54
:1042F800697B2B8B02930226019694F81D33009359
:1043080094F81C332046FFF7E6FEEA7B297B6B8B8B
:104318000293019694F81D33009394F81C332046B9
:10432800FFF7D9FE002685F84C603246697B2046A7
:10433800FCF76CFB3246297B2046FCF767FB18E04C
:104348006A701A2303FB0646B6F850336B8184E77C
:10435800EA731A2303FB0043B3F850336B83ACE7CB
:10436800EA731A2303FB0043B3F858336B83B4E7AB
:104378000227384605B0F0BD0227FAE70227F8E71A
:104388000227F6E7704730B583B00546D0F87C338E
:10439800DC6994F84D30012B0CD0022B18D1617BCD
:1043A800FCF720FB01281ED0022811D1012384F834
:1043B8004D300DE0606A228B90420BD9637BE16936
:1043C800012000902846FFF74DFE022384F84D3067
:1043D80003B030BD637BE1690122009282B22846B6
:1043E800FFF740FEF1E7636A228B93420AD99B1AD2
:1043F8006362E3691344E361636A33B1012384F8B8
:104408004D30E5E700236362F6E7002384F84D307A
:104418002846FFF7B7FFDBE7704738B50446D0F802
:104428007C33DD6995F84E30032B17D0042B1DD152
:10443800297BFCF7D7FA012818D1297B2046FCF7FD
:10444800CBFAAB6A834202D06A8B82420FD0002338
:1044580085F84E302046FFF7DFFF07E02B7B6A8B9D
:10446800296AFFF715FE042385F84E3038BD1B1A5C
:10447800AB622B6A03442B62032385F84E30F5E7C1
:10448800704770B50446D0F87C33DE6996F84C5016
:10449800042D04D8DFE805F03B0513353D00012560
:1044A80035E0B16CFFF74CFE18B9022386F84C30A2
:1044B8002DE0012836D0042386F84C3027E006F199
:1044C8004001FFF74AFE0546A0B9002386F84C30A4
:1044D800736CB26C51684B4033F07F4324D1316C1C
:1044E8001368994201D0012511E02046FFF7C8FF63
:1044F80001250CE001280AD0042386F84C30012558
:1045080005E0FFF740FF2046FFF787FF0125284613
:1045180070BD0021FFF75DFD40B9002386F84C30DF
:104528000125F4E70546F2E70125F0E70125EEE766
:10453800DFF834D0FFF73EFB0C480D490D4A002345
:1045480002E0D458C4500433C4188C42F9D30A4A40
:104558000A4C002301E013600432A242FBD300F0AE
:10456800E7F8FCF737F97047000002200000002048
:104578007C000020804800087C000020980A002069
:10458800FEE70000024B0146186800F02DB800BF96
:104598002C000020024B0146186800F0EFB800BF5D
:1045A8002C00002070B50F4E0C463168054611B935
:1045B80000F0AEF830602146284600F0A9F8431C08
:1045C80003D14FF0FF34204670BDC41C24F003040F
:1045D800A042F8D0211A284600F09AF80130F2D10A
:1045E800EFE700BF940100202DE9F843CD1C25F02A
:1045F800030508350C2D38BF0C25002D064601DBB8
:10460800A94204D90C2333600020BDE8F883DFF801
:10461800D48000F069F8D8F800301C4644BB29461D
:104628003046FFF7BFFF431C044658D1D8F8004076
:104638002746002F43D1002C4BD0236839463046FB
:1046480004EB030900F064F8814542D121686D1A32
:1046580029463046FFF7A6FF01303AD023682B449D
:104668002360D8F800305A6862BBC8F800700FE0C1
:104678002268521B20D40B2A17D96119A34225603E
:1046880018BF5960636808BFC8F8001062514B60D2
:10469800304600F02FF804F10B00231D20F007002E
:1046A800C21A1CBF1B1AA350AFE76268A3420CBF13
:1046B800C8F800205A60EBE723466468AEE73C463A
:1046C8007F68B6E71A465B68A342FBD100235360B4
:1046D800DEE70C233360304600F00CF894E7056001
:1046E800D6E700BF98010020014800F045B800BF98
:1046F800D8020020014800F040B800BFD8020020CE
:1047080002440346934200D1704703F8011BF9E7BE
:1047180038B5064D0023044608462B6000F078F8AB
:10472800431C02D12B6803B1236038BDD40200209A
:1047380070B50D4D0D4C641BA4100026A64209D17E
:104748000B4D0C4C00F072F8641BA4100026A64216
:1047580005D170BD55F8043B98470136EEE755F88A
:10476800043B98470136F2E7784800087848000883
:10477800784800087C4800087047704738B50546F7
:10478800002941D051F8043C0C1F002BB8BFE41895
:10479800FFF7AAFF1D4A136833B9636014602846FF
:1047A800BDE83840FFF7A6BFA34208D92068211802
:1047B8008B4201BF19685B6809182160EDE71A464A
:1047C8005B680BB1A342FAD911685018A0420BD10B
:1047D80020680144501883421160E0D118685B6872
:1047E800536008441060DAE702D90C232B60D6E73F
:1047F800206821188B4204BF19685B68636004BF96
:10480800091821605460CAE738BD00BF980100202C
:10481800044A1168034609B9034911601068034442
:1048280013607047DC020020980A0020F8B500BF2A
:10483800F8BC08BC9E467047F8B500BFF8BC08BC79
:044848009E467047D1
:10484C000080004000200010000000000102030462
:10485C000000000000000000010203040607080924
:04486C00434443007E
:0848700088B9FF7F0100000080
:04487800AD01000886
:04487C0089010008A6
:1048800001000000100000000024F4006C48000843
:1048900002000000074200089F4100087D41000817
:1048A0008B44000845410008000000003000002053
:1048B000000000009C010020040200206C02002087
:1048C00000000000000000000000000000000000E8
:1048D00000000000000000000000000000000000D8
:1048E00000000000000000000000000000000000C8
:0C48F000000000000000000000000000BC
:040000050800453971
:00000001FF
