:020000040800F2
:1000000000000220B95300084D0800084F080008FE
:1000100051080008530800085508000800000000B7
:100020000000000000000000000000005708000869
:1000300059080008000000005B0800085D0800087F
:10004000095400080954000809540008095400081C
:10005000095400080954000809540008095400080C
:1000600009540008095400080954000809540008FC
:1000700009540008095400080954000809540008EC
:1000800009540008095400080954000809540008DC
:1000900009540008095400080954000809540008CC
:1000A00009540008095400080954000809540008BC
:1000B00009540008095400080954000809540008AC
:1000C000095400080954000809540008095400089C
:1000D000095400080954000809540008095400088C
:1000E000095400080954000809540008095400087C
:1000F000095400080954000809540008095400086C
:10010000095400080954000809540008095400085B
:10011000095400080954000809540008095400084B
:10012000095400080954000809540008095400083B
:10013000095400080954000809540008095400082B
:10014000095400080954000809540008650800080B
:10015000095400080954000809540008095400080B
:1001600009540008095400080954000809540008FB
:100170000954000809540008095400080000000050
:080180000954000809540008AD
:1001880010B5054C237833B9044B13B10448AFF3C9
:1001980000800123237010BD9000002000000000A3
:1001A8008C56000808B5034B1BB103490348AFF34D
:1001B800008008BD00000000940000208C56000854
:1001C80053B94AB9002908BF00281CBF4FF0FF31B6
:1001D8004FF0FF3000F074B9ADF1080C6DE904CEB2
:1001E80000F006F8DDF804E0DDE9022304B070470A
:1001F8002DE9F047089D04468E46002B4DD18A42D2
:10020800944669D9B2FA82F252B101FA02F3C2F104
:10021800200120FA01F10CFA02FC41EA030E944095
:100228004FEA1C48210CBEFBF8F61FFA8CF708FBB6
:1002380016E341EA034306FB07F199420AD91CEB8E
:10024800030306F1FF3080F01F81994240F21C81C0
:10025800023E63445B1AA4B2B3FBF8F008FB103308
:1002680044EA034400FB07F7A7420AD91CEB04043D
:1002780000F1FF3380F00A81A74240F2078164440D
:10028800023840EA0640E41B00261DB1D440002392
:10029800C5E900433146BDE8F0878B4209D9002DF6
:1002A80000F0EF800026C5E9000130463146BDE880
:1002B800F087B3FA83F6002E4AD18B4202D38242EA
:1002C80000F2F980841A61EB030301209E46002D99
:1002D800E0D0C5E9004EDDE702B9FFDEB2FA82F2EE
:1002E800002A40F09280A1EB0C014FEA1C471FFA4C
:1002F8008CFE0126200CB1FBF7F307FB131140EA33
:1003080001410EFB03F0884208D91CEB010103F1FF
:10031800FF3802D2884200F2CB804346091AA4B2C1
:10032800B1FBF7F007FB101144EA01440EFB00FE95
:10033800A64508D91CEB040400F1FF3102D2A645FA
:1003480000F2BB800846A4EB0E0440EA03409CE799
:10035800C6F12007B34022FA07FC4CEA030C20FA46
:1003680007F401FA06F31C43F9404FEA1C4900FA66
:1003780006F3B1FBF9F8200C1FFA8CFE09FB1811E3
:1003880040EA014108FB0EF0884202FA06F20BD956
:100398001CEB010108F1FF3A80F08880884240F2A6
:1003A8008580A8F102086144091AA4B2B1FBF9F0EA
:1003B80009FB101144EA014100FB0EFE8E4508D9E5
:1003C8001CEB010100F1FF346CD28E456AD902386A
:1003D800614440EA0840A0FB0294A1EB0E01A1424F
:1003E800C846A64656D353D05DB1B3EB080261EBBD
:1003F8000E0101FA07F722FA06F3F1401F43C5E997
:10040800007100263146BDE8F087C2F12003D840CC
:100418000CFA02FC21FA03F3914001434FEA1C470E
:100428001FFA8CFEB3FBF7F007FB10360B0C43EA00
:10043800064300FB0EF69E4204FA02F408D91CEBB0
:10044800030300F1FF382FD29E422DD902386344AE
:100458009B1B89B2B3FBF7F607FB163341EA03414E
:1004680006FB0EF38B4208D91CEB010106F1FF389D
:1004780016D28B4214D9023E6144C91A46EA004694
:1004880038E72E46284605E70646E3E61846F8E626
:100498004B45A9D2B9EB020864EB0C0E0138A3E76F
:1004A8004646EAE7204694E74046D1E7D0467BE750
:1004B800023B614432E7304609E76444023842E7C8
:1004C800704700BF2DE9F04F8DB0002407940894C1
:1004D80009940A940B940194564B1A6B42F010023B
:1004E8001A631A6B02F010020192019A02941A6BB5
:1004F80042F004021A631A6B02F004020292029A92
:1005080003941A6B42F080021A631A6B02F080029D
:100518000392039A04941A6B42F001021A631A6B4D
:1005280002F001020492049A05941A6B42F0020246
:100538001A631A6B02F002020592059A06941A6B66
:1005480042F008021A631B6B03F008030693069B2C
:10055800394E22460821304602F09CFEDFF8E09032
:1005680001221146484602F095FEDFF8D88022465F
:100578004FF21001404602F08DFE0827079701252B
:10058800089509940A9407A9304602F091FD079549
:10059800089509940A9407A9484602F089FD079727
:1005A8000227089709940A944FF0050ACDF82CA061
:1005B80007A9484602F07CFD07954FF49019CDF83D
:1005C8002090099407A91D4802F072FD042307939F
:1005D80008940994DFF870B007A9584602F068FD3E
:1005E8004FF480630793089709940A94CDF82CA0D8
:1005F80007A9584602F05CFD4FF2100307930895CF
:1006080009940A9407A9404602F052FD2023079353
:100618000894099407A9404602F04AFD0797CDF8C7
:100628002090099407A9304602F042FD0DB0BDE8BC
:10063800F08F00BF00380240001002400000024066
:1006480000080240000C02400004024072B6FEE7B7
:1006580008B50A480A4B03600A4B436000238360CD
:10066800C3604FF48042026143618361C3610362E6
:1006780002F0E8FE00B908BDFFF7E8FFAC00002073
:1006880000540040A086010008B50A480A4B0360E0
:100698004FF40072426000238360C3600261074A1E
:1006A80042618361C361036202F0AAFF00B908BD19
:1006B800FFF7CCFF00010020003C0040007701005C
:1006C80008B50D480D4B03604FF482734360002357
:1006D8008360C360036143614FF400728261C36148
:1006E8000362436283620A23C36203F087FA00B994
:1006F80008BDFFF7ABFF00BF4801002000300140F4
:1007080008B50A480A4B03604FF4E13343600023FD
:100718008360C36003610C2242618361C36103F09B
:10072800C8FB00B908BDFFF791FF00BFA00100207A
:100738000044004000B595B03022002108A804F01C
:100748009BFE002303930493059306930793019359
:10075800214A116C41F080511164126C02F08052F0
:100768000192019A02931D4B1A6842F480421A6062
:100778001B6803F480430293029B012308934FF400
:100788008033099302230E934FF480020F920822BC
:1007980010924FF4A872119212930723139308A88A
:1007A80002F068F898B90F230393022304930023F7
:1007B80005934FF4A05306934FF4805307930521F4
:1007C80003A802F0BDFA20B915B05DF804FBFFF7E5
:1007D8003DFFFFF73BFF00BF0038024000700040BC
:1007E80000B587B002F0EEFDFFF7A4FFFFF76AFE41
:1007F800FFF72EFFFFF748FFFFF762FFFFF780FFC5
:1008080000F070F9EC460D4C0FCCACE80F0094E802
:1008180003004CF8040B2CF8021B090C8CF8001090
:1008280000F080F94FF0FF3316226946044803F0C0
:1008380070FB4FF47A7002F0F1FDF1E7A45600085E
:10084800A0010020FEE7FEE7FEE7FEE7FEE77047AF
:100858007047704708B502F0CFFD08BD08B50248DB
:1008680001F09CF908BD00BFC405002000B583B0A5
:10087800002100910C4B5A6C42F480425A645A6C25
:1008880002F480420092009A01911A6C42F0805260
:100898001A641B6C03F080530193019B072002F03C
:1008A800FFFC03B05DF804FB0038024030B589B0A6
:1008B8000023039304930593069307930268144B4C
:1008C8009A4201D009B030BD00250195114C236B27
:1008D80043F002032363236B03F002030193019B9C
:1008E8004FF41073039312230493012305930423F5
:1008F800079303A9084802F0DBFB0295236C43F435
:1009080000132364236C03F400130293029BD9E7BA
:1009180000540040003802400004024070B58CB01A
:1009280000230793089309930A930B930393049363
:10093800059306930268254B9A4201D00CB070BD0E
:1009480001230393C02304930223059303A802F011
:10095800CDFA002837D1002400941D4B1A6C42F4BC
:1009680000421A641A6C02F400420092009A019440
:100978001A6B42F001021A631A6B02F0010201922B
:10098800019A02941A6B42F004021A631B6B03F07B
:1009980004030293029B10230793022608960994E6
:1009A8000A9406250B9507A90A4802F081FB4FF423
:1009B800A4530793089609940A940B9507A9064827
:1009C80002F076FBBAE7FFF741FEC4E7003C0040BF
:1009D80000380240000002400008024000B589B01B
:1009E8000023039304930593069307930268144B1B
:1009F8009A4202D009B05DF804FB0021019103F589
:100A080084335A6C42F480525A645A6C02F480520D
:100A18000192019A02911A6B42F001021A631B6B50
:100A280003F001030293029BE02303930223049340
:100A38000523079303A9034802F03AFBDAE700BF4E
:100A4800003001400000024000B589B00023039344
:100A580004930593069307930268154B9A4202D0B4
:100A680009B05DF804FB0021019103F5FA331A6C13
:100A780042F400321A641A6C02F400320192019AAC
:100A880002911A6B42F001021A631B6B03F0010317
:100A98000293029B0C2303930223049303230693DC
:100AA8000723079303A9034802F002FBD8E700BF16
:100AB800004400400000024004290CD0052902D05F
:100AC800022904D07047064B03221A707047044B62
:100AD80002221A707047024B01221A70F2E700BF17
:100AE800E801002008B501220B490C4803F010FC6E
:100AF80048B90B49094803F02AFC38B9074803F0FC
:100B08006BFC30B908BDFFF7A1FDF2E7FFF79EFDCA
:100B1800F4E7FFF79BFDF5E7C10A0008EC010020A8
:100B28000C00002008B5024803F060FC08BD00BFB7
:100B3800EC01002070B588B000230393049305935B
:100B4800069307930368B3F1A04F01D008B070BDB6
:100B5800002501951A4C236B43F001032363236B93
:100B680003F001030193019B4FF400730393154EA7
:100B780003A9304602F09CFA4FF4E0530393022392
:100B88000493059506950A23079303A9304602F0B6
:100B98008FFA636B43F0800363630295636C43F4DD
:100BA80080436364636C03F480430293029B2A4688
:100BB8002946432002F086FB432002F0BBFBC5E731
:100BC800003802400000024008B5D0F8DC0303F00A
:100BD80057FD08BD08B5D0F8DC0303F062FD08BD79
:100BE80008B5D0F8DC0303F066FD08BD704708B50A
:100BF800D0F8DC0303F04DFD08BD08B5D0F8DC03E0
:100C080003F04BFD08BD000090F8CC33012B01D058
:100C18000020704710B504460F48C0F8DC43C4F8FC
:100C2800D0034FF0A0430360082343710123C3712D
:100C38000023837102224272837200F018F940B9CE
:100C4800054801F092F80146204603F016FD002001
:100C580010BDFFF7FBFCF3E7C405002008B5D0F88A
:100C6800D00301F087F8012804D0022804D000B18D
:100C7800012008BD0120FCE70220FAE708B5D0F8FA
:100C8800D00301F06CF808BD08B5D0F8D00301F026
:100C98005FF808BD08B590F8CC33012B04D0C82004
:100CA80002F0BCFB002008BD084600F06FF8F6E72C
:100CB800D0F8D033C1EB011003EB8000C07D38B110
:100CC800C1EB011103EB810181F83C200020704742
:100CD800C1EB011103EB810181F83D20F6E708B56E
:100CE80002F09CFB08BD022805D8DFE800F00504E7
:100CF8000200012070470220704708B5D0F8D003E1
:100D080000F0FAFFFFF7EFFF08BD08B5D0F8D003F1
:100D180001F007F8FFF7E7FF08BD08B5D0F8D003E2
:100D280001F011F8FFF7DFFF08BD10B584B0D0F867
:100D3800D003BDF8204002949DF81C4001949DF812
:100D48001840009401F027F8FFF7CDFF04B010BD5C
:100D580008B5D0F8D00300F078F8FFF7C4FF08BD55
:100D680010B584B0D0F8D0039DF824400394BDF8A2
:100D780020400294079C01949DF81840009400F0CC
:100D8800BDF8FFF7B0FF04B010BD000008B502467B
:100D980000B101220121024802F07CFA08BD00BF1F
:100DA80000080240F8B50668346A04F00F07C4F377
:100DB8004343C4F30A14022B00D0F8BD0546002CA7
:100DC800FBD0C7EB071300EB8303D96A0029F4D0E3
:100DD800C7EB071300EB83039A6B22445B6B9A42C1
:100DE80007D9C7EB071700EB8705042385F84C30B4
:100DF800E3E72246304601F00CF9C7EB071305EB91
:100E08008303DA6A2244DA629A6B22449A6306EB15
:100E18004716D6F81025C2F3C9421B8DA342CCD180
:100E2800002ACAD0D6F8003523F0804343F00043A7
:100E3800C6F80035C7EB071305EB830393F83C208E
:100E480082F0010283F83C20B7E790F8D433012BF5
:100E58000BD010B50446012380F8D433006801F0A4
:100E6800D6FA002084F8D40310BD02207047002869
:100E780042D030B583B00446056890F8D533BBB18D
:100E8800032384F8D533B5F1A04F16D0206801F0BC
:100E98005BF8237C8DF80030231D0ECB206801F011
:100EA80004F868B1022384F8D533012003B030BDBB
:100EB80080F8D433FFF73EFEE2E70023A371E5E7AD
:100EC8000121206801F0DFF820B1022384F8D5332E
:100ED8000120EBE7237C8DF80030231D0ECB206822
:100EE80001F002F918B9012384F8D533DEE70223AB
:100EF80084F8D5330120D9E70120704738B59DF82B
:100F08001040BDF81850C1EB011C00EB8C0C8CF89C
:100F180017208CF8263094B9C1EB011C00EB8C0C1F
:100F28004FF0030E8CF82AE09DF81CE08CF819E0CD
:100F3800032B00F2B180DFE803F00BA84C7AC1EB79
:100F4800011C00EB8C0C4FF0020E8CF82AE0EFE746
:100F5800012C40F0A180F2B935B9C1EB011300EBC7
:100F68008303012283F83D20C1EB011300EB8303C7
:100F780093F83D303BB9C1EB011300EB830300222A
:100F880083F82A2088E0C1EB011300EB83030222D7
:100F980083F82A2080E0C1EB011300EB83039B7EDA
:100FA800012B79D1C1EB011300EB830393F83C309B
:100FB8003BB9C1EB011300EB8303002283F82A201D
:100FC8006AE0C1EB011300EB8303022283F82A20B5
:100FD80062E0AAB9C1EB011300EB830393F83D303B
:100FE80033B9C1EB011300EB830383F82A2053E0E4
:100FF800C1EB011300EB8303022283F82A204BE0A4
:10100800C1EB011300EB830393F83C303BB9C1EB10
:10101800011300EB8303002283F82A203CE0C1EB94
:10102800011300EB8303022283F82A2034E0AAB9D3
:10103800C1EB011300EB830393F83D3033B9C1EBE7
:10104800011300EB830383F82A2025E0C1EB011389
:1010580000EB8303022283F82A201DE0C1EB011371
:1010680000EB830393F83C303BB9C1EB011300EB71
:101078008303002283F82A200EE0C1EB011300EB62
:101088008303022283F82A2006E0C1EB011300EB58
:101098008303002283F82A20C1EB011300EB8303AA
:1010A800059ADA625D63002283F84C209A635975C9
:1010B80083F84D20C1EB0111890010310144827978
:1010C8000431006801F034FA38BD30B583B0044605
:1010D8000568D5F840340193D5F840340093009B57
:1010E80023F02E030093019B13F0020F07D0019BFE
:1010F80013F0010F25D1009B43F002030093019BDD
:1011080013F0080F10D0009B43F008030093019BD5
:1011180013F0040F2DD0637A022B15D0E379012B3D
:1011280022D02046FFF763FD019B13F0200F03D068
:10113800009B43F020030093009BC5F8403403B0A4
:1011480030BDFFF747FDD6E7019B03F4C023B3F595
:10115800802F04D00121206801F046F8E1E7022140
:10116800206801F041F8DCE74EF66022C5F8042457
:10117800D7E72046FFF741FDD6E7F8B505460C4608
:101188000668304600F073FF10F0040F21D006EB1C
:1011980044130422C3F80825C4EB041305EB8303A6
:1011A800072283F84D202146286801F030F92146AE
:1011B800286800F05CFF10F4007F6CD02146286896
:1011C80001F025F906EB44164FF40073C6F808350C
:1011D800F8BD2146286800F04AFF10F4807F11D03E
:1011E80006EB44134FF48072C3F80825C4EB0413CC
:1011F80005EB8303082283F84D202146286801F077
:1012080006F9D4E72146286800F031FF10F0080FEE
:1012180010D006EB44130822C3F80825C4EB0413C6
:1012280005EB8303062283F84D202146286801F048
:10123800EEF8BCE72146286800F019FF10F4806F2B
:1012480011D006EB44134FF48062C3F80825C4EBB1
:10125800041305EB8303092283F84D2021462868EF
:1012680001F0D5F8A3E72146286800F000FF10F048
:10127800800F9CD006EB44138022C3F80825C4EBEA
:10128800041305EB8303072283F84D2021462868C1
:1012980001F0BDF88BE72146286800F0E8FE10F061
:1012A800010F75D006EB441606F5A0672023BB6036
:1012B800C4EB041305EB8303DB7E012B30D0AB7941
:1012C8004BB1C4EB041305EB83031A6B3969C1F303
:1012D8001201521A9A63C4EB041305EB830301222B
:1012E80083F84D2000215964BA6093F8263013B36F
:1012F800022B20D0032B01D0012B22D1D6F80035A8
:1013080043F00053C6F80035C4EB041305EB830320
:10131800012283F84C2021462846FFF767FC10E09D
:10132800C4EB041305EB83030022DA767B6823F40D
:1013380080337B60C3E72146286801F068F81023F2
:10134800BB60AB79012B0AD0C4EB041305EB830314
:1013580093F83C2082F0010283F83C2038E7C4EB84
:10136800041205EB8202936B128D1344013BB3FB0D
:10137800F2F313F0010F3FF42BAFC4EB041305EBAA
:10138800830393F83C2082F0010283F83C201FE796
:101398002146286800F06BFE10F0200F1ED006EBE7
:1013A80044162023C6F80835C4EB041305EB830361
:1013B8009B7E012B7FF40CAFC4EB041305EB830376
:1013C8000122DA76C4EB041305EB8303032283F8C6
:1013D8004D202146286801F01AF8F9E621462868C8
:1013E80000F045FE10F0020F00F01D8106EB4416D8
:1013F80006F5A06202239360C4EB041305EB830394
:1014080093F84D30012B13D0062B26D0072B2FD065
:10141800092B2DD0052B68D0032B00F0B480042BAA
:1014280000F0DC80082B00F0F180022B0AD1CFE617
:10143800C4EB041305EB8303022283F84D20012239
:1014480083F84C20C4EB041305EB830393F84C207A
:1014580021462846FFF7CAFBBAE6C4EB041305EB9E
:101468008303022283F84D20052283F84C20E9E704
:10147800C4EB041305EB8303022183F84D10596C68
:101488000131596402291BD9C4EB041305EB83030A
:10149800002159649B7E012B07D0C4EB041305EB94
:1014A8008303042283F84C20CCE7C4EB041305EB38
:1014B8008303D9761977536823F480335360ECE7B4
:1014C800C4EB041305EB8303022283F84C2093F842
:1014D80026300BB19342B5D1D6F8003523F08043BE
:1014E80043F00043C6F80035ACE7C4EB041305EB42
:1014F8008303022183F84D10DB7E012BA2D13C230C
:1015080003FB045393F82630032B16D03C2303FB2C
:101518000453022283F84C203C2303FB045393F822
:1015280026300BB1022B8DD1D6F8003523F080433D
:1015380043F00043C6F8003584E73C2101FB045121
:101548008B6C01338B64022B16D90B4600219964EE
:10155800D9765B6C022B04D83C2303FB045301218E
:101568001977536823F4803353603C2303FB0453F7
:10157800042283F84C20CFE73C2303FB04530222C8
:1015880083F84C20C8E7C4EB041305EB830302215E
:1015980083F84D10DB7E012B7FF454AF3C2303FB13
:1015A800045383F84C10516841F480315160D1687C
:1015B80041F04001D160D16821F02001D16093F859
:1015C800263013B1022B7FF43DAFD6F8003523F057
:1015D800804343F00043C6F8003533E7C4EB0413F7
:1015E80005EB8303022283F84D2083F84C2093F8FF
:1015F800263013B193427FF425AFD6F8003523F097
:10160800804343F00043C6F800351BE73C2303FB47
:101618000453022283F84D205A6C01325A64042282
:1016280083F84C200EE72146286800F020FD10F0D2
:10163800400F18D006EB44134022C3F80825C4EB2A
:10164800041305EB8303052283F84D209B7E2BB9F9
:10165800C4EB041305EB830300225A64214628686F
:1016680000F0D5FEB4E52146286800F000FD10F032
:10167800100F3FF4ADADC4EB041305EB830393F8EF
:101688002630032B28D00BB1022B18D1C4EB04133E
:1016980005EB830300225A64AB7933B1C4EB04131E
:1016A80005EB8303DB7E012B09D13C2303FB0453A9
:1016B800042283F84D202146286800F0A8FEC4EBD8
:1016C800041305EB8303DB7E012B12D006EB4413D6
:1016D8001022C3F808257BE53C2303FB04530022B2
:1016E8005A64042283F84D202146286800F08FFEB2
:1016F800E5E7C4EB041305EB83050023EB7606EB63
:101708004413D3F8042522F48032C3F80425D3F80F
:101718000C2542F02002C3F80C25D7E770B5054622
:101728000C460668304600F0A2FC10F0040F10D0FA
:1017380006EB44160423C6F80835C4EB041305EB7E
:101748008303072283F84D202146286800F05FFEB6
:1017580070BD2146286800F08AFC10F0200F4AD09E
:1017680006EB44162023C6F80835C4EB041305EB32
:1017780083035B7E012B2DD0C4EB041305EB83039D
:101788009B7E012BE4D1C4EB041305EB8303DB7EC2
:10179800002BDDD1C4EB041305EB830393F826304B
:1017A800012B05D0C4EB041305EB83030122DA7681
:1017B8002601C4EB041305EB8303032283F84D20B1
:1017C8002146286800F023FE341B05EB840500231E
:1017D8006B64BDE7C4EB041305EB830300225A7660
:1017E800022283F84C20032283F84D2021462868E2
:1017F80000F00DFEC0E72146286800F038FC10F420
:10180800007F0AD006EB44164FF40073C6F808357B
:101818002146286800F0FBFD9AE72146286800F079
:1018280026FC10F0010F3BD0C4EB041305EB830337
:1018380000225A642146286800F019FC10F0400F75
:101848000AD0C4EB041305EB830301225A7606EB96
:1018580044134022C3F80825C4EB041305EB8303A3
:10186800DB7E6BB1C4EB041305EB83030022DA764D
:1018780006EB4413D3F8042522F48032C3F8042578
:1018880006EB44160122C6F80825C4EB041305EB41
:10189800830383F84D202146286800F0B8FD57E7F8
:1018A8002146286800F0E3FB10F0400F1ED0C4EB7F
:1018B800041305EB8303052283F84D209B7E2BB987
:1018C800C4EB041305EB830301225A76C4EB04131B
:1018D80005EB830300225A642146286800F097FD2F
:1018E80006EB44144023C4F8083531E7214628683C
:1018F80000F0BDFB10F0080F10D006EB44130822CF
:10190800C3F80825C4EB041305EB8303062283F808
:101918004D202146286800F07AFD19E721462868FD
:1019280000F0A5FB10F0100F20D0C4EB041305EB5A
:10193800830300225A64042283F84D205B7E5BB93E
:10194800C4EB041305EB83031B7E2BB9C4EB041310
:1019580005EB830301225A762146286800F057FDDB
:1019680006EB44131022C3F80825F1E6214628683F
:1019780000F07DFB10F0800F38D0AB79F3B1C4EBE9
:10198800041205EB8202536C01335364022B20D8F6
:101998003C2303FB0455022385F84C3006EB441224
:1019A800D2F8003523F0804343F00043C2F80035F5
:1019B80006EB44138022C3F80825C9E63C2303FB41
:1019C8000453072283F84D202146286800F01FFDA4
:1019D800EEE73C2303FB045300225A64042283F8F5
:1019E8004C2021462846FFF701F9E1E721462868FF
:1019F80000F03DFB10F4806F10D03C2303FB045330
:101A0800092283F84D202146286800F000FD06EBE6
:101A180044134FF48062C3F8082599E621462868E4
:101A280000F025FB10F0020F3FF492AE06EB4416CF
:101A380006F5A062022393603C2303FB045393F84A
:101A48004D30012B23D0032B62D0042B6FD0052BF4
:101A580000F08280062B00F08880072B02D0092B2B
:101A68007FF476AE3C2303FB0453022283F84D2017
:101A78005A6C01325A64022A40F281803C2303FBEB
:101A8800045300225A64042283F84C200EE03C23BD
:101A980003FB0453022283F84D20012283F84C20D3
:101AA80093F82630023BDBB2934209D93C2303FB6F
:101AB800045393F84C2021462846FFF797F847E649
:101AC800A97941B93C2303FB045393F83D2082F0E4
:101AD800010283F83D200129E8D13C2303FB04538C
:101AE8005B6B002BE2D03C2202FB0452128D1344A4
:101AF800013BB3FBF2F313F0010FD7D03C2303FBF8
:101B0800045393F83D2082F0010283F83D20CDE78D
:101B18003C2303FB0453022283F84D20DB7E012B78
:101B2800C4D13C2303FB045383F84C20BEE73C2379
:101B380003FB0453022183F84D1083F84C10DB7E1D
:101B4800012BB3D13C2303FB04530021D9765368FE
:101B580023F480335360A9E73C2303FB0453022298
:101B680083F84D2083F84C20A0E73C2303FB045363
:101B7800022283F84D20052283F84C2096E73C2367
:101B880003FB0453022283F84C20D6F8003523F0D7
:101B9800804343F00043C6F8003587E7F8B50446AC
:101BA8000568284600F06BFA012800D0F8BD2068C7
:101BB80000F059FA0028F9D0206800F054FA10F41F
:101BC800001F03D023684FF400125A61206800F008
:101BD8004AFA10F4801F03D023684FF480125A6128
:101BE800206800F040FA10F0806F03D023684FF0AF
:101BF80080625A61206800F036FA10F0020F02D0B5
:101C0800236802225A61206800F02DFA10F0005F64
:101C180008D023684FF000525A61D5F8403413F0C9
:101C2800010F25D0206800F01EFA10F0807F32D115
:101C3800206800F018FA10F0080F30D1206800F082
:101C480012FA10F0007F31D1206800F00CFA10F081
:101C5800100FABD02268936923F0100393612046DC
:101C6800FFF7A0F82268936943F0100393619DE79A
:101C78001021284600F06EF9284600F090F9637AA2
:101C8800022B03D02046FEF7ABFFCBE701212068EB
:101C980000F0AAFAF6E72046FFF717FAC8E7204649
:101CA800FEF792FF236808225A61C7E7206800F010
:101CB800A9FB0746002604E0F1B22046FFF72EFDF7
:101CC80001366379B34212D906F00F0327FA03F3FA
:101CD80013F0010FF4D005EB4613D3F8003513F4D5
:101CE800004FE9D0F1B22046FFF747FAE8E723684A
:101CF8004FF000725A61A7E790F8D433012B0ED049
:101D080010B50446012180F8D413006800F0ACFA3D
:101D1800206800F013F9002084F8D40310BD0220D5
:101D2800704790F8D433012B0BD010B5044601232B
:101D380080F8D433006800F053FD002084F8D40301
:101D480010BD0220704708B5006800F06EFA08BDA3
:101D5800C1EB011100EB810191F84C007047C1EB18
:101D6800011100EB8101886B704708B5006800F02D
:101D7800A9FA08BD08B5006800F099FA08BDC1EBDA
:101D8800011200EB820200209076D07682F82500BE
:101D980082F8240070472DE9F04F85B01F469DF862
:101DA80038A09DF83C90BDF840B090F8D433012B92
:101DB80054D005460C461646D846012380F8D4333D
:101DC800C1EB011300EB830300225A761F75597586
:101DD80083F8269006F07F029A75FFF7D0FF16F079
:101DE800800F29D1C4EB041305EB83030022DA75B5
:101DF800286800F05CFAB9F1010F24D0C4EB041391
:101E080005EB830383F818A01FFA88F3C4EB0412C8
:101E180005EB820213850293CDF80490CDF800A05B
:101E28003B4632462146286800F052FA002385F8DE
:101E3800D43305B0BDE8F08FC4EB041305EB83037E
:101E48000122DA75D4E7BAF1010FD7D10028D5D12C
:101E5800BBF1BC0FD2D94FF0BC08CFE70220E8E7AE
:101E680082B000230193019B01330193019BB3F1DD
:101E7800706F15D80369002BF5DA00230193036905
:101E880043F001030361019B01330193019BB3F10B
:101E9800706F08D8036913F0010FF4D1002000E037
:101EA800032002B070470320FBE784B010B5044656
:101EB80003A880E80E009DF81130012B21D1A36BF7
:101EC80023F48033A363E36823F4840323F04003FB
:101ED800E360E36823F44013E3609DF81830012BB6
:101EE8000AD02046FFF7BCFF9DF80E30012B1CD00E
:101EF800BDE8104004B07047E36843F48013E36022
:101F0800EFE7E36843F04003E3602046FFF7A8FFEC
:101F18009DF8153023B9A36B43F48033A363E3E73B
:101F2800A36B23F48033A363DEE7A36843F00603BF
:101F3800A360A36843F02003A360D9E7836843F054
:101F48000103836000207047836823F001038360E6
:101F58000020704782B000230193019B0133019355
:101F6800019BB3F1706F15D80369002BF5DA0023D4
:101F78000193890141F020010161019B0133019323
:101F8800019BB3F1706F08D8036913F0200FF4D1E7
:101F9800002000E0032002B070470320FBE782B076
:101FA80000230193019B01330193019BB3F1706FEF
:101FB80013D80369002BF5DA00230193102303617A
:101FC800019B01330193019BB3F1706F08D803693A
:101FD80013F0100FF4D1002000E0032002B0704786
:101FE8000320FBE710B59DF8084084B903334FEA96
:101FF800930E4FF0000C08E000EB023303F580531A
:1020080051F8044B1C600CF1010CF445F4D300208A
:1020180010BD00B583B0844608464FEA920E02F020
:102028000302002305E00CF58051096840F8041B01
:1020380001337345F7D39AB10CF5805CDCF80030B6
:1020480001934FF0000C5FFA8CF3D900019BCB4051
:1020580000F8013B0CF1010C013A92B2002AF2D1CE
:1020680003B05DF804FB426980691040704700EBDB
:102078004111D1F80805D1F80C351840704740696E
:1020880000F00100704738B50546C36823F0C04327
:10209800C360012913D019BBC36843F08043C360F0
:1020A80000240A2001F0BAF90A342846FFF7E7FFAE
:1020B80008B1C72CF5D9C82C14D0002038BDC36886
:1020C80043F00053C36000240A2001F0A7F90A3442
:1020D8002846FFF7D4FF0128EDD0C72CF4D9EAE74A
:1020E8000120EBE70120E9E784B038B5044605A8EC
:1020F80080E80E000023C4F8003EA36B43F40013ED
:10210800A363A36B23F40023A363A36B23F48023AB
:10211800A363E36813F0400F11D19DF81730012B2A
:1021280006D0D4F8003423F00403C4F800340CE0DB
:10213800D4F8003443F00403C4F8003405E0D4F8BC
:10214800003423F00403C4F8003410212046FFF7BC
:1021580001FF054600B101252046FFF720FF00B129
:102168000125002209E004EB42134FF0FF31C3F8C8
:1021780008150021C3F80C1501329DF8153093425B
:10218800F1D80023A3614FF0FF336361124B9C42E7
:1021980017D08023636203F5C003A3620F4BC4F812
:1021A80000319DF816301BB9A36943F01003A361F1
:1021B800A2690B4B1343A3612846BDE8384004B01D
:1021C80070474FF40073636203F18073A362054B99
:1021D800C4F80031E5E700BF00000440E00040001B
:1021E800080020A30003E00000F5806CD0F800345C
:1021F80023F00303C0F80034D0F8003401F00302E0
:102208001343C0F80034012907D002290BD141F249
:102218007073CCF80430002070474BF68033CCF84C
:102228000430002070470120704730B583B0044661
:1022380000250195D0F840340193019B23F02E032B
:102248000193019B43F48073C0F84034642001F08B
:10225800E5F8019B23F48073C4F840340A2001F0A8
:10226800DDF8284603B030BD82B000230193D0F8D2
:1022780040340193019B23F02E030193019B13F437
:10228800805F01D101290CD0019B13F4805F05D038
:1022980021B9019B23F48053C0F84034002002B0D8
:1022A8007047019B43F48053C0F84034ECE782B098
:1022B80000230193D0F8403401930198C0F34140C2
:1022C80002B0704700F58060806880B270470000F7
:1022D8002DE9F84391461C469DF8245000EB411621
:1022E80006F5A0634FF0FF329A60032D7BD8DFE834
:1022F80005F0026C021940F29D42DA6019F0800F75
:1023080004D13F4A904207D0002712E0DA6842F42D
:102318008072DA6000270CE0DA6842F06002DA6066
:10232800002706E040F29D62DA6019F0800F46D17E
:10233800002700225A60DA6842F00202DA60D0F818
:10234800183401F00F01012202FA01F11943C0F813
:102358001814836943F00073836119F0800F44D126
:102368004FF00008FFF7A3FF9DF82030022B3FD065
:102378000021A30503F0FE534FEAC92909F4F049E7
:1023880043EA0903AC0404F440242343BDF828209D
:10239800C2F30A02134343EA08030B4343F48013CE
:1023A800C6F80035032D01D0012D05D1D6F800352A
:1023B80043F00053C6F800353846BDE8F883DA68BC
:1023C80042F48072DA600027B3E740F22522DA602F
:1023D80019F0800F01D10027ABE7DA6842F4C07228
:1023E800DA600027A5E70127A3E74FF40048B9E71B
:1023F800022802D04FF40031BBE70021B9E700BF43
:102408000000044000F58060406980B2704770B4F5
:1024180083B00023019300EB411101F5A062D1F8CC
:102428000035C3F38143D1F800555468866816F027
:10243800200F08D0ED0FE40F2CB9002D5AD0012B36
:1024480058D0032B56D01BB3022B21D0D1F800351E
:1024580043F08043C1F80035D0F8103413F47F0FEF
:102468004CD1D1F8003523F00043C1F80035D1F83C
:10247800003543F00043C1F80035019B0133019357
:10248800019BB3F57A7F35D81368002BF5DB31E073
:10249800D1F8003543F08043C1F80035836813F064
:1024A800200F21D1C36A13F47F0F16D1D1F800355C
:1024B80023F00043C1F80035D1F8003543F000435C
:1024C800C1F80035019B01330193019BB3F57A7F75
:1024D80010D81368002BF5DB0CE0D1F8003543F079
:1024E8000043C1F8003505E0D1F8003543F000435A
:1024F800C1F80035002003B070BC7047D1F8003532
:1025080043F00043C1F80035F4E7000000EB411147
:10251800064AC1F81025D1F8003523F0804343F06E
:102528000043C1F800350020704700BF0000088054
:1025380070B584B04B78A14CA04213D08C79012C93
:102548002AD00D6A002D5BD08E8AAC19013CB4FBF1
:10255800F6F4A4B2B4F5807F53D93602CE614FF4B5
:1025680080744EE0012A07D08C88B4F5807FE5D1CD
:102578001946FFF7CBFF1DE18C7C0CB1022CDDD195
:102588008C79002CDAD100EB4314D4F80C5525F0E3
:102598007005C4F80C55D1E7CC781CB18C8ACC6195
:1025A800012435E08C7C012C05D0012A21D00C6A4D
:1025B800CC6101242CE00C6ABC2C0DD98C8ACC612E
:1025C8000C62CC68013C012C02D90124CC601FE0CC
:1025D8000224CC6001241BE0CC61CC68013C012CB6
:1025E80003D90424CC60012412E00324CC60012424
:1025F8000EE00D6A8C8AA542D9D9CC61012407E086
:102608000124CE78002E5FD08D8A04FB05F5CD61BC
:10261800CD69C5F3120C6A4D05EAC4444CEA040CB2
:102628008C7D640704F0C04400EB431303F5A06EEF
:102638004CEA0404CEF8104012B18C69CEF814406C
:1026480000F5806CDCF8084014F0010F0CBF01267F
:102658000026D3F8005525F00055C3F80055D3F8E7
:10266800004544EA4674C3F800458C79012C2DD006
:102678000024CEF80440D3F800450394039C24F0CA
:1026880080440394CC78002C7DD0039C44F400440F
:102698000394039C44F000440394039CC3F800454E
:1026A800002A40F08780CB78002B40F083800B6AAB
:1026B800002B7FD0CA79002A7CD18A7C032A72D861
:1026C800DFE802F066806680CD61A1E74D7C0C7C76
:1026D80044EAC51444F00044CEF80440DEF80C4047
:1026E80044F06004CEF80C40CC79012C12D08C7CDC
:1026F800012C1FD0032C1DD08C7C012CBBD1CC7895
:10270800002CB8D1CC68013C032CB4D8DFE804F025
:102718001F262D34CC78002CE9D1DEF8044044F48F
:102728008034CEF80440DEF80C4044F04004CEF883
:102738000C40DCE7CC79012CDED1CC78012CDBD144
:10274800DEF8044044F48034CEF80440D4E7DEF8E0
:10275800044044F40044CEF804408CE7DEF804401A
:1027680044F00E04CEF8044085E7DEF8044044F453
:102778008044CEF804407EE7DEF8044044F4404448
:10278800CEF8044077E7039C24F40044039480E7E0
:102798000333C26A92B2C3F38F03934203D98369A6
:1027A80043F020038361002300930B8C4A788969E6
:1027B800FFF718FC002004B070BD00BF0000044003
:1027C8000000F81F0333DCF8102092B2C3F38F0324
:1027D8009A42E8D2836943F080638361E3E700BFEC
:1027E80030B583B0044600230193FFF7ADFB1021F9
:1027F8002046FFF7AFFB054600B101252046FFF74D
:10280800CEFB00B1012500220AE004EB4211D1F809
:10281800003523F0802343F08043C1F800350132AE
:102828000F2AF2D9002100E001310F2916D804EB54
:10283800411000F5A062D0F8003523F4004343F0BE
:102848004043C0F80035019B01330193019BB3F568
:102858007A7FE9D81368002BF5DBE5E74FF0FF3303
:10286800C4F8143463612046FFF768FB284603B0B8
:1028780030BD0000002800F0E08170B582B0044649
:10288800036813F0010F3BD09F4B9B6803F00C03C8
:10289800042B2CD09C4B9B6803F00C03082B21D0F5
:1028A8006368B3F5803F4FD0B3F5A02F52D0964B55
:1028B8001A6822F480321A601A6822F480221A6098
:1028C8006368002B50D000F0A3FD05468E4B1B68B3
:1028D80013F4003F14D100F09BFD401B6428F5D988
:1028E8000320B1E1884B5B6813F4800FD8D0864B86
:1028F8001B6813F4003F03D06368002B00F09F812E
:10290800236813F0020F54D07F4B9B6813F00C0F11
:102918003ED07D4B9B6803F00C03082B33D0E36853
:10292800002B68D0794B01221A6000F071FD054632
:10293800754B1B6813F0020F54D100F069FD401B62
:102948000228F5D903207FE16F4A136843F48033E6
:102958001360B5E76C4B1A6842F480221A601A6853
:1029680042F480321A60ABE700F052FD0546664B30
:102978001B6813F4003FC3D000F04AFD401B6428D5
:10298800F5D9032060E1604B5B6813F4800FC6D172
:102998005D4B1B6813F0020F03D0E368012B40F076
:1029A8005081594A136823F0F803216943EAC103A7
:1029B8001360236813F0080F42D063696BB3534B5D
:1029C8000122C3F8802E00F023FD05464E4B5B6FB5
:1029D80013F0020F34D100F01BFD401B0228F5D97B
:1029E800032031E1484A136823F0F803216943EAD8
:1029F800C1031360DDE7454B00221A6000F008FDB3
:102A08000546414B1B6813F0020FD2D000F000FDC1
:102A1800401B0228F5D9032016E13C4B0022C3F8DD
:102A2800802E00F0F5FC0546374B5B6F13F0020F64
:102A380006D000F0EDFC401B0228F5D9032003E185
:102A4800236813F0040F77D02F4B1B6C13F0805FB3
:102A580033D1002301932C4B1A6C42F080521A6434
:102A68001B6C03F080530193019B0125284B1B68C5
:102A780013F4807F23D0A368012B34D0052B38D0E2
:102A8800214B1A6F22F001021A671A6F22F0040212
:102A98001A67A368002B3DD000F0BAFC06461A4B13
:102AA8001B6F13F0020F46D100F0B2FC801B41F2FD
:102AB80088339842F3D90320C6E00025D6E7144AA4
:102AC800136843F48073136000F0A2FC0646104BB1
:102AD8001B6813F4807FCED100F09AFC801B02287B
:102AE800F5D90320B0E0084A136F43F001031367D8
:102AF800CFE7054B1A6F42F004021A671A6F42F0CB
:102B080001021A67C5E700BF0038024000004742CB
:102B18000070004000F07CFC0646524B1B6F13F01F
:102B2800020F08D000F074FC801B41F288339842F1
:102B3800F3D9032088E0EDB9A369002B00F0838066
:102B4800484A926802F00C02082A51D0022B17D08A
:102B5800454B00221A6600F05BFC0446414B1B689B
:102B680013F0007F42D000F053FC001B0228F5D977
:102B7800032069E03B4A136C23F080531364DBE7BE
:102B8800394B00221A6600F043FC0546354B1B689A
:102B980013F0007F06D000F03BFC401B0228F5D95B
:102BA800032051E0E369226A1343626A43EA82130D
:102BB800A26A5208013A43EA0243E26A43EA02631C
:102BC800284A5360284B01221A6600F021FC04466B
:102BD800244B1B6813F0007F06D100F019FC001B82
:102BE8000228F5D903202FE000202DE000202BE05B
:102BF800012B2BD01B4B5B6803F48001E2699142E7
:102C080026D103F03F02216A8A4223D1616A47F63E
:102C1800C0721A40B2EB811F1ED103F44031A26A80
:102C28005208013AB1EB024F18D103F07063E26A1F
:102C3800B3EB026F14D1002006E001207047012099
:102C480002E0012000E0002002B070BD0120FBE797
:102C58000120F9E70120F7E70120F5E70120F3E774
:102C68000120F1E7003802400000474208B5314B27
:102C78009B6803F00C03042B57D0082B57D12D4B1E
:102C88005A6802F03F025B6813F4800F2AD0294B80
:102C98005968C1F3881C4FEA4C11B1EB0C006EEB7C
:102CA8000E0E4FEA8E1343EA90638101091A63EB13
:102CB8000E03DB0043EA5173C90011EB0C0C43F11E
:102CC8000003590200234FEA4C2041EADC51FDF78A
:102CD80077FA184B5B68C3F3014301335B00B0FB21
:102CE800F3F025E0134B5968C1F3881C4FEA4C11E7
:102CF800B1EB0C006EEB0E0E4FEA8E1343EA9063B5
:102D08008101091A63EB0E03DB0043EA5173C90022
:102D180011EB0C0C43F10003990200234FEA8C20BD
:102D280041EA9C51FDF74CFAD3E7034800E0034819
:102D380008BD00BF0038024000127A000024F400E9
:102D4800002800F09B8070B50D4604464F4B1B6869
:102D580003F007038B4208D2CBB24C4A13701368B6
:102D680003F007038B4240F08B80236813F0020FB7
:102D780017D013F0040F04D0454A936843F4E05386
:102D88009360236813F0080F04D0414A936843F412
:102D9800604393603E4A936823F0F003A1680B43B5
:102DA8009360236813F0010F32D06368012B21D0A0
:102DB8009A1E012A25D9364A126812F0020F61D0EC
:102DC80033498A6822F0030213438B6000F020FB2A
:102DD80006462F4B9B6803F00C036268B3EB820F27
:102DE80016D000F015FB801B41F288339842F0D9C9
:102DF800032042E0264A126812F4003FE0D1012085
:102E08003BE0234A126812F0007FD9D1012034E058
:102E18001E4B1B6803F00703AB4207D9EAB21B4BF2
:102E28001A701B6803F00703AB422DD1236813F017
:102E3800040F06D0164A936823F4E053E1680B4365
:102E48009360236813F0080F07D0114A936823F49E
:102E58006043216943EAC1039360FFF707FF0C4B06
:102E68009B68C3F303130B4AD35CD8400A4B186022
:102E78000A4B186800F080FA002070BD01207047E6
:102E88000120FAE70120F8E70120F6E7003C0240BC
:102E980000380240BC56000808000020040000204A
:102EA800014B1868704700BF0800002008B5FFF7FD
:102EB800F7FF044B9B68C3F38223034AD35CD840D3
:102EC80008BD00BF00380240CC56000808B5FFF71F
:102ED800E7FF044B9B68C3F34233034AD35CD840F3
:102EE80008BD00BF00380240CC56000830B583B09A
:102EF8000446036813F0050F06D1236813F0020F88
:102F08002ED1002003B030BD4A4B00229A6600F053
:102F18007FFA0546484B1B6813F0006F06D000F097
:102F280077FA431B022BF5D90320EBE76268A36805
:102F38001B0743EA8213404AC2F884303D4B012202
:102F48009A6600F065FA05463B4B1B6813F0006F64
:102F5800D3D100F05DFA431B022BF5D90320D1E74A
:102F680000230193344B1A6C42F080521A641B6C94
:102F780003F080530193019B304A136843F4807334
:102F8800136000F045FA05462C4B1B6813F4807F4C
:102F980006D100F03DFA431B022BF5D90320B1E717
:102FA800254B1B6F13F4407314D0E26802F440728F
:102FB8009A420FD0204B1A6F22F440721D4901200B
:102FC800C1F8400E0020C1F8400E1A671B6F13F0BD
:102FD800010F13D1E36803F44072B2F5407F1ED0AD
:102FE800154A936823F4F813936013490B6FE2684A
:102FF800C2F30B0213430B67002083E700F008FAC3
:1030080005460D4B1B6F13F0020FE3D100F000FAD9
:10301800401B41F288339842F3D9032072E70649EE
:103028008A6822F4F81223F0704323F440731343A0
:103038008B60DAE700004742003802400070004029
:10304800012801D000207047154B9B6813F400033A
:1030580002D01BB313487047114B5B6813F4800F01
:1030680014D00F4B5B6803F03F030F48B0FBF3F33A
:103078000B4AD2F88400C0F3881003FB00F0D2F8A2
:103088008430C3F30273B0FBF3F07047044B5B6802
:1030980003F03F030548B0FBF3F3E9E7002070476E
:1030A800003802400080BB0000127A000024F400BF
:1030B80000230F2B00F2E48070B582B060E08568D1
:1030C8005E000324B44025EA0405CC68B4402C43D0
:1030D8008460456825EA02054C68C4F300129A40EA
:1030E8002A4342605AE0DC08083450F8246003F0B0
:1030F800070295000F22AA4026EA020E0A69AA4092
:1031080042EA0E0240F824205CE0072200E0002298
:1031180002FA0EF22A4302345A4D45F824205A4A3C
:1031280094686FEA0C0224EA0C054E6816F4801FB6
:1031380001D04CEA0405544CA560E46802EA040591
:103148004E6816F4001F01D04CEA04054E4CE560A9
:10315800646802EA04054E6816F4003F01D04CEAA0
:103168000405494C6560246822404D6815F4803F89
:1031780001D04CEA0402444C226001330F2B7DD865
:1031880001229A400C6804EA020C32EA0404F4D1E1
:103198004C6804F00304013C012C90D94A6802F001
:1031A8000302032A09D0C4685D000322AA4024EA66
:1031B80002048A68AA402243C2604A6802F00302F5
:1031C800022A90D004684FEA430E032202FA0EF254
:1031D80024EA02044A6802F0030202FA0EF22243C9
:1031E80002604A6812F4403FC7D000220192274A81
:1031F800546C44F480445464526C02F4804201924A
:10320800019A9C08A51C1F4A52F8255003F0030296
:103218004FEA820E0F2202FA0EF225EA02051C4A34
:1032280090423FF474AF02F5806290421AD002F5E2
:103238008062904218D002F58062904216D002F562
:103248008062904214D002F58062904212D002F55A
:103258008062904210D002F5806290423FF455AFF0
:10326800082255E7012253E7022251E703224FE7DC
:1032780004224DE705224BE7062249E702B070BD5C
:10328800704700BF00380140003C01400038024050
:10329800000002400AB181617047090481617047EA
:1032A800074AD36823F4E0631B041B0C000200F4F4
:1032B800E060034343F0BF6343F40033D3607047D7
:1032C80000ED00E000B5194BDB68C3F30223C3F13E
:1032D800070CBCF1040F28BF4FF0040C03F1040ED7
:1032E800BEF1060F18D9033B4FF0FF3E0EFA0CFC57
:1032F80021EA0C0199400EFA03F322EA0303194369
:1033080000280BDB0901C9B200F1604000F56140FB
:1033180080F800135DF804FB0023E5E700F00F00D8
:103328000901C9B2024B1954F4E700BF00ED00E0EF
:1033380014ED00E0002807DB00F01F02400901231C
:103348009340024A42F82030704700BF00E100E095
:103358000138B0F1807F0BD24FF0E0235861054A65
:10336800F02182F823100020986107221A61704723
:103378000120704700ED00E010B504460E4B1878A8
:103388004FF47A73B3FBF0F30C4A1068B0FBF3F018
:10339800FFF7DEFF68B90F2C01D901200AE00022EF
:1033A80021464FF0FF30FFF78DFF054B1C600020D2
:1033B80000E0012010BD00BF000000200800002030
:1033C8000400002008B50B4B1A6842F400721A601A
:1033D8001A6842F480621A601A6842F480721A60AD
:1033E8000320FFF75DFF0020FFF7C6FFFDF73EFA59
:1033F800002008BD003C0240034A1168034B1B78BB
:103408000B441360704700BFA4090020000000208F
:10341800014B1868704700BFA409002038B504465E
:10342800FFF7F6FF0546B4F1FF3F02D0044B1B78C7
:103438001C44FFF7EDFF401BA042FAD338BD00BF84
:1034480000000020002800F0CC8070B5044690F8F9
:103458003D30002B77D0242384F83D302268136850
:1034680023F0010313602268136843F400431360D8
:103478002268136823F400431360FFF717FD62689E
:103488005A4B9A4264D85A4B98428CBF0023012366
:10349800002B40F0A8805749A1FB00318B0C256810
:1034A8006A6822F03F0242EA91426A6021680A6A29
:1034B80022F03F0266684D4DAE424FD801331343A8
:1034C8000B622168CA6922F44F4222F0FF02666843
:1034D800464B9E424CD8431E7600B3FBF6F30133AD
:1034E80040F6FC70034278D0C3F30B031343CB615F
:1034F80021680B6823F0C003E269206A0243134382
:103508000B6021688B6823F4034323F0FF032269CF
:10351800E068024313438B602168CB6823F0FF0304
:103528006269A06902431343CB602268136843F0C1
:103538000103136000202064202384F83D302063B9
:1035480084F83E0070BD80F83C30FDF7AFF982E7A3
:10355800294B98428CBF0023012399E74FF49675B5
:1035680005FB03F3254DA5FB03539B090133A6E790
:10357800A368BBB9451E06EB460CB5FBFCF5013547
:10358800C5F30B05B5FA85F56D0945BBC3B9013817
:1035980006EB4603B0FBF3F30133C3F30B0343F429
:1035A8000043A3E7451E06EB860C0CEB8C0CB5FB21
:1035B800FCF50135C5F30B05B5FA85F56D09E4E7AA
:1035C800013806EB860303EB8303B0FBF3F3013307
:1035D800C3F30B0343F4404388E7042386E701233E
:1035E80084E7012070470120ACE700BFA0860100F6
:1035F8007F841E0083DE1B43FF083D00D34D62100D
:10360800002800F0BF8038B5044690F84130002B00
:1036180051D0022284F841202168CB6923F47B63CE
:1036280023F00F03CB6123681A626369934263D066
:10363800E368002B46D11025A368202B00D86D0025
:103648000120FFF7FDFC2369B3F5007F3CD0B0FBF8
:10365800F5F000EB800043006069B3FBF0F305333D
:10366800494AA2FB0323C3F3C002C2EBD3035B089E
:1036780011029A1EFD2A41D822690A432168134380
:103688000B622168CB6923F47B6323F00F03626824
:10369800A0680243E0680243A0690243134343F46D
:1036A8000063CB61236A012B2ED0002060640123C4
:1036B80084F8413038BD80F84030344B4363FDF71F
:1036C8002DF9A6E72025B7E7E36853B1AD00B0FBB5
:1036D800F5F000EB800043006069B3FBF0F30533BD
:1036E800BEE7ED00B0FBF5F000EB80004300606939
:1036F800B3FBF0F30533B3E70021BAE7636C43F09B
:10370800100363640120D5E7214B63632268214BD2
:103718009A421FD04FF04022D36923F47B6323F0F1
:103728000F03D36122681B4B9A4215D04FF04023F8
:1037380002221A622268174B9A4210D04FF0402595
:10374800EB699BB26268B2F5007F0AD0C2B94FF448
:10375800807008E0104ADFE7A3F58063E8E70E4DC4
:10376800EEE74FF48070B4F808C0A189228B40EAD4
:103778000C0001430A43134343F40063EB6194E7ED
:103788000020F0E701207047CDCCCCCC1B380008D6
:103798002D3A00080038004000340040704708B552
:1037A800426A03681288DA60436A02334362438DCF
:1037B8009BB2013B9BB24385438D9BB203B108BDCD
:1037C8000268536823F0A0035360012380F8413056
:1037D800FFF7E4FFF3E7704708B50368DA68C36AE0
:1037E8001A80C36A0233C362438E9BB2013B9BB209
:1037F8004386438E9BB203B108BD0268536823F029
:1038080060035360012380F84130FFF7E4FFF3E7DA
:10381800704710B584B0044602689368039390F823
:103828004130DBB2042B06D094F84130DBB2032BD5
:103838002CD004B010BD039B13F0010F03D05368C4
:1038480013F0400F1FD1039B13F0400FECD02368F7
:103858005A6812F0200FE7D05A6822F060025A60C6
:10386800002301932368DA6801929B680193019B06
:10387800012384F84130636C43F0020363642046FB
:10388800FFF7C6FFD0E7FFF7A7FFDCE7039B13F0BE
:10389800020F04D023685B6813F0800F1DD1039BCF
:1038A80013F0080FC5D023685A6812F0200FC0D053
:1038B8005A6822F0A0025A600023029323689B688A
:1038C8000293029B012384F84130636C43F00403A4
:1038D80063642046FFF79CFFABE72046FFF75FFFD6
:1038E800DDE7704708B5436A9A1C426202681B8884
:1038F800D360438D9BB2013B9BB24385438D9BB202
:103908003BB90268536823F0A0035360438E9BB20F
:1039180003B108BD012380F84130FFF7E2FFF8E763
:1039280008B50268154B9A421CD04FF04023DA685C
:10393800C36A991CC1621A80438E9BB2013B9BB239
:103948004386438E9BB263B902680C4B9A420CD0F3
:103958004FF04022536823F060035360438D9BB2BD
:103968002BB108BDA3F58063E1E7054AF2E701231F
:1039780080F84130FFF7B5FFF3E700BF003800409B
:103988000034004008B5436A9A1C42621A880168EC
:10399800134B994218D04FF04023DA60438D9BB205
:1039A800013B9BB24385438D9BB263B902680C4BC4
:1039B8009A420CD04FF04022536823F0A003536082
:1039C800438E9BB22BB108BDA3F58063E5E7054A9A
:1039D800F2E7012380F84130FFF783FFF3E700BFE8
:1039E800003800400034004008B50368DA68C36A4C
:1039F800991CC1621A80438E9BB2013B9BB24386DD
:103A0800438E9BB23BB90268536823F0600353604E
:103A1800438D9BB203B108BD012380F84130FFF705
:103A280060FFF8E710B586B0044603689A68059207
:103A3800704A93426FD04FF04022916804915B68BE
:103A48000393536802936368B3F5007F01D0002B9A
:103A580070D1059B13F0020F03D0039B13F0800F66
:103A68005CD1049B13F0010F03D0029B13F0400FAD
:103A780058D1049B13F0400F24D0029B13F0200F61
:103A880020D022685B4B9A4250D04FF040225368B6
:103A980023F0600353602268536823F0A003536047
:103AA800002300932368DA6800929B680093009BC8
:103AB800012384F84130636C43F0020363642046B9
:103AC800FFF7A6FE059B13F0080F22D0039B13F007
:103AD800200F1ED02268536823F0A0035360226889
:103AE800444B9A4224D04FF04022536823F060039D
:103AF80053600023019323689B680193019B012372
:103B080084F84130636C43F0040363642046FFF794
:103B18007FFE06B010BDA2F580628EE72046FFF753
:103B2800E1FE9EE72046FFF7FBFEA2E7324AAEE73A
:103B3800314ADAE7049B13F0020F03D0029B13F01B
:103B4800800F4AD1059B13F0010F03D0039B13F09C
:103B5800400F46D1059B13F0400F1CD0039B13F078
:103B6800200F18D02268536823F06003536022683E
:103B7800204B9A4239D04FF04022536823F0A003DB
:103B88005360012384F84130636C43F0020363649B
:103B98002046FFF73DFE049B13F0080FB9D0029BA7
:103BA80013F0200FB5D02268124B9A421FD04FF065
:103BB8004022536823F0A00353602268536823F01F
:103BC80060035360012384F84130636C43F00403BD
:103BD80063642046FFF71CFE9BE72046FFF7D2FEF2
:103BE800B0E72046FFF700FFB4E7034AC5E7024AFB
:103BF800DFE700BF003800400034004000285AD0FA
:103C080010B50446436A33B94368B3F5827F05D0DB
:103C18000023C36102E00023036143610023A36220
:103C280094F85130002B40D0022384F85130226898
:103C3800136823F040031360636803F48273A26877
:103C480002F404421343E26802F400621343226957
:103C580002F002021343626902F001021343A269EF
:103C680002F400721343E26902F038021343226A35
:103C780002F080021343A26A02F40052216813433F
:103C88000B60638B03F00403626A02F01002216880
:103C980013434B602268D36923F40063D361002087
:103CA8006065012384F8513010BD84F850302046F7
:103CB800FCF794FEB8E701207047026802F10C0394
:103CC80053E8003F23F490730C3242E80031002996
:103CD800F3D1026802F1140353E8003F23F0010313
:103CE800143242E800310029F3D1036B012B05D0CF
:103CF800202380F84230002303637047026802F1F2
:103D08000C0353E8003F23F010030C3242E8003163
:103D18000029F3D1ECE7000038B5044602681369BE
:103D280023F44053C1680B4313618368026913434A
:103D380042691343C2691A430168CB6823F41643E6
:103D480023F00C031343CB600268536923F44073D8
:103D580081690B4353610368314A934206D002F5E7
:103D68008062934202D0FFF7A1F801E0FFF7AEF8B6
:103D7800E369B3F5004F29D00021031849411B1806
:103D880041F10001C90041EA5371DB00181863686A
:103D98004FEA83024FEA937341F10001FCF710FAEE
:103DA800204DA5FB00325109642303FB11031B01BD
:103DB8003233A5FB03235B0903F0F00202EB011287
:103DC80003F00F03216813448B6038BD00230218E9
:103DD80043EB0301121841F10001C90041EA527195
:103DE800D200101841F10001626892185B41FCF79B
:103DF800E7F90C4DA5FB00325109642303FB1103BD
:103E0800DB003233A5FB03235B095A0002F4F87286
:103E180002EB011203F00703216813448B60D4E717
:103E2800001001401F85EB512DE9F04383B0054692
:103E38000E4617469946DDF828802C68246836EA2D
:103E480004030CBF4FF0010C4FF0000CBC4528D107
:103E5800B8F1FF3FF1D0FFF7DBFAA0EB09004045CE
:103E680023D8B8F1000F22D02B68DA6812F0040FBB
:103E7800E3D0802EE1D0402EDFD01A6812F0080F70
:103E8800DBD0002401941A6801925B680193019BBE
:103E98002846FFF712FF08236B6485F8404001208D
:103EA80000E0002003B0BDE8F0830320FAE7032018
:103EB800F8E760B310B5044690F8413013B32423F3
:103EC80084F841302268D36823F40053D360204635
:103ED800FFF722FF2268136923F4904313612268D5
:103EE800536923F02A0353612268D36843F40053CB
:103EF800D36000206064202384F8413084F8423085
:103F0800606310BD80F84030FCF79EFDD7E70120C4
:103F180070472DE9F04182B01E4690F84130DBB27F
:103F2800202B56D104460D469046002955D00AB993
:103F380001204FE000234364212380F84130FFF73C
:103F480067FA0746A4F82480A4F82680A368B3F586
:103F5800805F02D04FF0000814E023692BB34FF0C4
:103F680000080FE0202384F84130032032E038F8BD
:103F7800023B2268C3F308035360E28C92B2013A11
:103F880092B2E284E38C9BB293B100963B46002246
:103F980080212046FFF748FF0028E3D1002DE6D016
:103FA80015F8012B23685A60E7E7A8460025E9E7DA
:103FB80000963B46002240212046FFF735FF18B9FE
:103FC800202384F8413005E0202384F84130032081
:103FD80000E0022002B0BDE8F0810120FAE700000D
:103FE800034AD2F8883043F47003C2F88830704727
:103FF80000ED00E008B50378DBB20B2B00D008BD5C
:10400800D0F87C33002BFAD09B699847F7E738B58E
:104018000446002306E003F1E00204EB82020021DB
:10402800516001330F2BF6D9002304E0E218002178
:1040380082F81C110133B3F5007FF7D300252570F2
:1040480065700123A370C4F8C45323764022A2717B
:10405800657684F81C5384F81D3384F81F5384F85C
:104068001E534FF48072294604F11C0001F004FA33
:104078004FF40072294604F58E7001F0FDF9C4F87A
:104088002653C4F82A53C4F82E53C4F83253A4F85C
:1040980036533E22294604F54E7001F0EDF92846C4
:1040A80038BD70B584B004464578072D00F22C81E0
:1040B800DFE815F00800480069009A00BF00E50035
:1040C800FE001701082100F013FE18B1032821D0C3
:1040D800012509E194F82D33A37101256570029338
:1040E8000026019694F81D33009394F81C3380221F
:1040F8002179204600F007FFA3790293019694F8EE
:104108001D33009394F81C3332466179204600F041
:10411800FAFEE9E094F81E330133DBB284F81E336B
:10412800032B03D90D2323700125DDE06179204697
:1041380000F011FF2179204600F00DFF00232370C5
:104148000125D1E0122100F0D3FD10B902236370DC
:10415800CAE0032840F0C88094F81E330133DBB26C
:1041680084F81E33032B02D90D232370BCE0617938
:10417800204600F0F0FE2179204600F0ECFE0023F6
:1041880063702370B0E0012100F008FE18B1032825
:1041980024D00125A8E00220FCF7A1FD012584F820
:1041A8001C5303236370A37902930026019694F8A5
:1041B8001D3300932B4680222179204600F0A3FE70
:1041C800A3790293019694F81D33009394F81C3355
:1041D80032466179204600F096FE85E00D23237073
:1041E8000023637001257FE0092100F09CFD18B9C8
:1041F80004236370012577E0032801D0012573E0CB
:1042080094F81E330133DBB284F81E33032B03D931
:104218000D232370012567E06179204600F09BFE9D
:104228002179204600F097FE002363702370012552
:104238005AE0B0F83A1300F076FD18B90523637018
:10424800012551E0032801D001254DE094F81E33E3
:104258000133DBB284F81E33032B03D90D232370FB
:10426800012541E06179204600F075FE217920465C
:1042780000F071FE002363702370012534E090F88C
:10428800341319B90623437001252DE0FF2300F5E7
:104298008E7200F063FD18B906236370012523E0D0
:1042A800032801D001251FE00623637001251BE0C8
:1042B80090F8351319B907234370012514E0FF233B
:1042C80000F58E7200F04AFD18B9072363700125C6
:1042D8000AE0032801D0012506E0072363700125C1
:1042E80002E090F8365315B9284604B070BDFF2394
:1042F80000F58E72294600F031FD05460028F3D0FE
:10430800032803D00125EFE70125EDE70025EBE7BA
:10431800D8B170B50E46044680F8CC230025C0F805
:104328007C53C0F88053FFF772FE84F8235384F857
:10433800205384F8215384F822530EB1C4F8D4636F
:104348002046FCF761FC002070BD022070470A4639
:1043580051B1D0F880334BB9591CC0F88013DE3303
:1043680040F8232000207047022070470220704741
:1043780090F83C338B4203D980F82413002070470F
:104388000220704710B5044600200BE04FF01A0CCD
:104398000CFB0E4E9EF849C39C451CD0FF2B1AD02F
:1043A8000130C0B2012815D886464FF01A0C0CFB14
:1043B800004C9CF847C38C4501D0FF29F0D14FF041
:1043C8001A0C0CFB0E4C9CF848C39445DED0FF2A0F
:1043D800E6D1DBE7FF2010BD10B50446FCF78DFCE5
:1043E80001212046FCF756FC002010BD30B587B0EF
:1043F800044602238DF8173090F82133DBB2012BE5
:1044080011D02378DBB20B2B7BD8DFE813F00F0039
:104418002100450011017A007D00EE0092009C0009
:10442800A600C200080103230370EAE794F82033CA
:10443800002B66D001232370C820FCF750FC2046CF
:10444800FCF76BFC002384F81C33C4F8C83358E02D
:1044580094F82333012B0FD0D4F8C833B3F57A7FFF
:1044680013D994F81F330133DBB284F81F33032BBD
:1044780008D90D23237044E0002384F81F33022356
:1044880023703EE0002323703BE00A33C4F8C833AE
:104498000A20FCF724FC34E0D4F8D43313B1042107
:1044A800204698476420FCF71AFC2046FCF7D6FB08
:1044B80084F81D03052323700021204600F038FDF1
:1044C80060718021204600F033FD01462071A379F8
:1044D80002930025019594F81D33009394F81C333A
:1044E8008022204600F00FFDA3790293019594F8ED
:1044F8001D33009394F81C332A466179204600F056
:1045080002FD002007B030BD2046FFF7CAFD8DF838
:1045180017009DF81730002BF3D184F8243394F852
:104528003733012B02D007232370EAE708232370CF
:10453800E7E7D4F8D433002BE3D00121204698478D
:1045480008232370DDE794F83D13204600F037FC7C
:104558000028D6D109232370D3E794F83F3313F00A
:10456800200F02D10A232370CBE70121204600F057
:1045780037FC8DF817009DF8173013B90A232370FC
:10458800BFE79DF81730DBB2032BBAD10A2323709B
:10459800B7E7D4F88033002BB3D00023C4F87C33BA
:1045A80073B1D4F87C33EBB19B6820469847B0B917
:1045B80006232370D4F8D433032120469847A0E774
:1045C80003F1DE0254F82220107994F84713884248
:1045D80002D00133DBB2E3E7C4F87C23E1E70D2323
:1045E80023708EE70D2323708BE7D4F87C339BB1BF
:1045F8001B69204698478DF817009DF8173013B9A6
:104608000B2323707DE79DF81730DBB2022B7FF474
:1046180078AF0D23237074E70D23237071E7D4F866
:104628007C33002B3FF46DAF5B692046984768E701
:10463800002384F821332046FFF7E9FCD4F87C33C3
:104648002BB1DB68204698470023C4F87C33D4F8A4
:10465800D43313B105212046984794F82233DBB2AE
:10466800012B03D02046FCF748FB4AE7002384F8D7
:1046780022332046FFF7B0FE43E7C0F8C413704763
:1046880008B5D0F8C4230132C0F8C423FFF7B2FC40
:1046980008BD012380F823337047002380F82333B3
:1046A80070470346012280F82023002083F8210365
:1046B80083F82203704738B50446012380F8213374
:1046C800002580F8205380F82353FCF71EFB21793E
:1046D800204600F040FC6179204600F03CFC28466A
:1046E80038BD03468C46002972D0097880F8261315
:1046F8009CF8011080F827139CF802109CF803001E
:1047080041EA0021A3F828139CF8041083F82A131F
:104718009CF8051083F82B139CF8061083F82C13CB
:104728009CF8071083F82D1393F81D0301282DD941
:10473800022842D00320082A4BD99CF808209CF86C
:10474800091042EA0122A3F82E239CF80A209CF8BB
:104758000B1042EA0122A3F830239CF80C209CF8A5
:104768000D1042EA0122A3F832239CF80E2083F8A8
:1047780034239CF80F2083F835239CF8102083F805
:1047880036239CF8112083F837237047202910D846
:10479800082909D30839C9B2012000FA01F101F04A
:1047A800013121F4803179B9082183F82D130020D3
:1047B800C1E74029F8D10020BDE7082906D0082123
:1047C80083F82D130020B6E70020B4E70020B2E7F5
:1047D800022070470B7803704B7843708B78837096
:1047E800CB78C3700B79022B28BF022303714B7956
:1047F80043718B798371CB79C3710B7A03727047DC
:1048080010B5864613780B7053784B7093788B707D
:1048180092F803C081F803C01379507943EA002362
:104828008B8094798C715A1E92B2B2F5007F0CD2AB
:1048380000209EF81D23DAB90CF00302022A06D0E4
:1048480052B9402B19D9032017E00320F1E7B3F53B
:10485800007F12D9032010E0012A03D0032A01D0D7
:1048680003200AE0013CE4B20F2C06D9032004E03F
:10487800012A03D0022A1ED0032010BD0CF0030227
:10488800022A00D01AB9402BF7D90320F5E7012AEC
:1048980003D0032A09D00320EFE7013CE4B20F2C30
:1048A8001AD8402BE9D90320E7E7BCB1B3F5806FEC
:1048B800E3D31046E1E71CF0030C03D1082BDCD04E
:1048C8000320DAE7BCF1030F01D00320D5E73CB1A0
:1048D800082BD2D96046D0E70320CEE71046CCE7B4
:1048E8006046CAE74378032B00D070470378023B41
:1048F8009A4228BF1A4692B2002307E000EB030C45
:104908009CF802C001F801CB02339BB29342F5D365
:1049180000230B70E9E730B583B00446057E6B1EB3
:104928000A2B00F2DE80DFE803F0061035415461FF
:104938007E8A9DAAC100427900F1100100F073FA45
:1049480002232376284603B030BD4179FCF79CF951
:104958000546012805D0042818D0022816D00125BC
:10496800F0E7237CE28A42B113F0800F02D10523DD
:104978002376E7E703232376E4E713F0800F02D1D9
:1049880007232376DEE709232376DBE70B23237649
:104998000125D7E7D0F8C433C381037982898168B8
:1049A80000F068FA042323760125CBE70179FCF7A8
:1049B8006BF9012806D0052800F09580042804D05A
:1049C8000125BFE709232376F5E70B232376012585
:1049D800B8E70125009543798289816800F034FAA7
:1049E800D4F8C433E38106232376ABE74179FCF797
:1049F8004BF90546012807D0052808D002280AD017
:104A080004280CD001259DE7072323769AE70C2379
:104A18002376032596E705232376012592E70B23C2
:104A2800237602258EE703790022114600F022FA48
:104A3800D4F8C433E38108232376012582E701797A
:104A4800FCF722F9012805D0042807D005284CD006
:104A5800012577E70D232376002573E70B232376BB
:104A680001256FE70125009543790022114600F0E2
:104A7800EBF9D4F8C433E3810A23237662E741795A
:104A8800FCF702F9012805D0022807D0042809D02C
:104A9800012557E70D232376002553E709232376BD
:104AA80001254FE70B23237601254BE7437E01338E
:104AB800DBB24376022B03D801250576857041E7E2
:104AC800D0F8D433062198470025657661792046C9
:104AD80000F041FA2179204600F03DFA25700225C0
:104AE80030E701252EE703252CE703252AE703787D
:104AF8000A8813440B800378184470472DE9F04363
:104B080083B0002900F0AA8005460C460B78092BD3
:104B180001D009230B70237885F83833637885F83A
:104B28003933A378E17843EA0123B3F5807F28BFBE
:104B38004FF48073A5F83A33237985F83C336379C9
:104B480085F83D33A37985F83E33E37985F83F331B
:104B5800237A85F84033092A40F282800923ADF888
:104B6800063000263746012E6FD8B5F83A23BDF82F
:104B780006309A4269D90DF106012046FFF7B7FFC2
:104B880004464378042BEED10378092B01D009237E
:104B98000370B14605F54E701A2306FB03F308337C
:104BA800184421460230FFF715FE4FF0000814E0C4
:104BB8000723237005F54E7308F101081A2101FB3C
:104BC80009F101EBC801083119442246043128468D
:104BD800FFF716FE07465FFA88F81A2303FB095306
:104BE80093F8463343452BD9B5F83A13BDF8062058
:104BF800914225D90DF106012046FFF778FF0446BA
:104C08004378052BE9D11A2303FB095393F847335B
:104C1800012BCDD11A2303FB095393F84833023BE8
:104C2800DBB2012BC4D81A2303FB095393F8493389
:104C3800002BBFD10378092BBCD009230370B9E737
:104C4800434512D80136F6B28DE795F83C33022B6E
:104C580028BF0223B34204D9032702E0022700E059
:104C68000027384603B0BDE8F0830327F9E710B5FD
:104C780004468078012803D0022808D0012010BDFE
:104C8800A160A281012323760223A370F7E72046BF
:104C9800FFF741FE30B1032804D00228EFD10123E9
:104CA800A370ECE70123A37000232376E7E708B598
:104CB8008E4694461946BDF808208378012B02D009
:104CC800FFF7D5FF08BD6EF07F0E80F810E00623D1
:104CD8004374A0F812C00CF47F4CBCF5407F03D09D
:104CE80000238382C282EBE740F209438382F9E71B
:104CF800B1F5007F15D870B582B005460C4600F5B1
:104D08008E76009133464FF480720021FFF7CFFF73
:104D180008B102B070BD224631462846FFF7E1FCD3
:104D2800F7E703207047B1F5807F15D870B582B0DA
:104D380004460D4600F11C06009133464FF40072FC
:104D48000021FFF7B4FF08B102B070BD2A46314612
:104D58002046FFF7D3FEF7E703207047F0B583B08E
:104D6800B3F5007F16D815461C46AAB100F58E7714
:104D780000933B4641F440720021FFF798FF064636
:104D880010B1304603B0F0BD224629463846FFF739
:104D9800A9FDF6E70326F4E70326F2E708B58378CA
:104DA800012B04D000221146FFF761FF08BD002344
:104DB80003740522427441828382C382F2E708B5F4
:104DC8008378012B04D000221146FFF750FF08BD5D
:104DD800002303740922427441828382C382F2E76A
:104DE80008B58378012B04D000221146FFF73FFF56
:104DF80008BD002303740322427441828382C38264
:104E0800F2E708B58378012B04D000221146FFF79A
:104E18002EFF08BD02230374012343740023438239
:104E28008182C382F1E710B584B00B461146002495
:104E38000394082202920193009423462246FBF72A
:104E48008FFF204604B010BD30B585B00C4619461A
:104E58009DF8203090F81D5305B10023039302926A
:104E680001940123009300231A46FBF779FF0020E1
:104E780005B030BD30B585B00D4619460024039401
:104E880002920195012200922346FBF769FF204612
:104E980005B030BD30B585B00C4619469DF82030B8
:104EA80090F81D5305B10023039302920194012346
:104EB800009302230022FBF753FF002005B030BD0A
:104EC80030B585B00D461946002403940292019529
:104ED800012200920223FBF743FF204605B030BDB4
:104EE80000230F2B0CD803F1E00200EB820252687A
:104EF80012F4004F02D00133DBB2F2E798B27047E8
:104F08004FF6FF70704710B584B0BDF8204002948A
:104F18009DF81C4001949DF818400094FBF705FF8C
:104F2800002004B010BD08B5FBF712FF002008BD33
:104F380038B504460D46FFF7D3FF4FF6FF73984286
:104F480007D000F00F0345F40045E03304EB83037A
:104F58005D60C0B238BD0F2906D8E03100EB810092
:104F68004368C3F30E034360002070470020704776
:104F780008B52122027420224274002242828282D1
:104F88000722C282FFF773FE08BD08B5A12202748A
:104F9800212242740022428282820722C282FFF7C3
:104FA80066FE08BD38B50446D0F87C33D96940316F
:104FB800FFF7EBFF054620B9D4F8D4330221204689
:104FC8009847284638BD38B50446D0F87C33DD69A3
:104FD800297879B9297BB1B9697BF1B9D4F87C33DF
:104FE800D86928B100F040FAD4F87C330022DA619D
:104FF800002038BDFFF797FF29782046FFF7ABFF61
:1050080000232B70E6E72046FFF78DFF297B20461B
:10501800FFF7A1FF00232B73DEE72046FFF783FF8E
:10502800697B2046FFF797FF00236B73D6E7F0B53F
:1050380085B00446012302221146FFF7A3F901288F
:1050480000F2AE80064601462046FFF791F9074672
:10505800002840F0A980D4F87C53502000F0FCF9D7
:10506800E861D4F87C33DD69002D00F09F80502280
:105078000021284600F000FA1A2303FB064393F8A0
:105088004E2393F94E33002B72DB69782046FFF7E5
:105098004FFF014628706A786B89029303230193B6
:1050A80094F81D33009394F81C332046FFF72BFF28
:1050B800002229782046FBF7FBFD00231A460A2127
:1050C8002046FFF75FF9012872D81A2303FB004333
:1050D80093F84E2393F94E33002B51DBAA731A230E
:1050E80003FB0043B3F850332B831A2303FB00431D
:1050F80093F8562393F95633002B49DBAA731A23E6
:1051080003FB0040B0F858332B83A97B2046FFF7F8
:105118000FFF6873E97B2046FFF70AFF2873AA7B15
:10512800697B2B8B02930226019694F81D3300931A
:1051380094F81C332046FFF7E6FEEA7B297B6B8B4D
:105148000293019694F81D33009394F81C3320467B
:10515800FFF7D9FE002685F84C603246697B204669
:10516800FBF7A6FD3246297B2046FBF7A1FD18E098
:105178006A701A2000FB0646B6F850336B8184E744
:10518800EA731A2303FB0043B3F850336B83ACE78D
:10519800EA731A2303FB0040B0F858336B83B4E773
:1051A8000227384605B0F0BD0227FAE70227F8E7DC
:1051B8000227F6E7704730B583B00546D0F87C3350
:1051C800DC6994F84D30012B03D0022B19D003B0C1
:1051D80030BD606A228B90420AD9637BE169012065
:1051E80000902846FFF756FE022384F84D30EEE77C
:1051F800637BE1690122009282B22846FFF74AFEEA
:10520800F2E7617BFBF740FD012805D00228DED1DB
:10521800012384F84D30DAE7636A228B93420AD976
:105228009B1A6362E3691344E361636A33B1012340
:1052380084F84D30CBE700236362F6E7002384F857
:105248004D302846FFF7B6FFC1E7704738B504462A
:10525800D0F87C33DD6995F84E30032B02D0042B4F
:1052680009D038BD2B7B6A8B296AFFF729FE0423F6
:1052780085F84E30F5E7297BFBF706FD0128F0D1CC
:10528800297B2046FBF7FAFCAB6A834202D06A8B83
:10529800824206D0002385F84E302046FFF7D5FF1E
:1052A800DFE71B1AAB622B6A18442862032385F8D0
:1052B8004E30D6E7704770B50446D0F87C33DE69C7
:1052C80096F84C50042D04D8DFE805F03F05133953
:1052D8004100012539E0B16CFFF74AFE18B90223F5
:1052E80086F84C3031E001283AD0042386F84C3057
:1052F8002BE006F14001FFF748FE0546C0B9002340
:1053080086F84C30736C23F07F42B16C4B6823F005
:105318007F439A4201D0012517E0326C0B689A420C
:1053280001D0012511E02046FFF7C4FF01250CE05C
:1053380001280AD0042386F84C30012505E0FFF740
:105348003AFF2046FFF782FF0125284670BD00215D
:10535800FFF757FD30B9002386F84C300125F4E7F4
:105368000546F2E70125F0E710B503460C4A0D495A
:105378000D48006840B10C4800680344521A934233
:1053880006D8094A136010BD0748084C0460F2E7C4
:1053980000F038F80C2303604FF0FF30F3E700BF4C
:1053A8000000022000040000A8090020C009002015
:1053B800DFF834D0FEF714FE0C480D490D4A0023DF
:1053C80002E0D458C4500433C4188C42F9D30A4AB2
:1053D8000A4C002301E013600432A242FBD300F020
:1053E80017F8FBF7FDF970470000022000000020C5
:1053F80090000020E856000890000020BC0900201A
:10540800FEE70000014B1868704700BF2C00002021
:1054180070B50D4D0D4C641BA4100026A64209D191
:105428000B4D0C4C00F02EF9641BA4100026A6426C
:1054380005D170BD55F8043B98470136EEE755F89D
:10544800043B98470136F2E7E0560008E0560008AA
:10545800E0560008E4560008024B0146186800F0C0
:105468007FB800BF2C000020024B0146186800F0EE
:105478000BB800BF2C00002002440346934200D121
:10548800704703F8011BF9E737B5002944D051F8F4
:10549800043C0190002BA1F10404B8BFE41800F00B
:1054A800E3F81E4A0198136833B96360146003B0C7
:1054B800BDE8304000F0DEB8A34208D9256861197C
:1054C8008B4201BF19685B6849192160EDE71A46EC
:1054D8005B680BB1A342FAD911685518A5420BD1E4
:1054E800246821445418A3421160E0D11C685B6809
:1054F800536021441160DAE702D90C230360D6E730
:10550800256861198B4204BF19685B68636004BF32
:10551800491921605460CAE703B030BDAC090020C6
:1055280070B50E4E0C463168054611B900F08CF87E
:1055380030602146284600F087F8431C0AD0C41C76
:1055480024F00304A04207D0211A284600F07CF872
:10555800013001D14FF0FF34204670BDB009002062
:105568002DE9F041CD1C25F0030508350C2D38BF79
:105578000C25002D074601DBA94205D90C233B6009
:1055880000263046BDE8F0812E4E00F06DF83368F5
:105598001C4634BB29463846FFF7C2FF431C044665
:1055A8004DD134682646002E40D12368314638460E
:1055B80004EB030800F048F880453AD12168033528
:1055C8006D1A25F0030508350C2D38BF0C25294622
:1055D8003846FFF7A5FF01302BD023682B44236002
:1055E8000EE02268521B1ED40B2A16D96119A34259
:1055F800256018BF5960636808BF316062514B600D
:10560800384604F10B0600F035F826F00706231D8E
:10561800F21AB6D09B1BA350B3E76268A3420CBF33
:1056280032605A60ECE723466468B2E7344676682D
:10563800B9E70C233B60384600F01CF8A1E7256069
:10564800DEE700BFAC09002038B5064D002304464C
:1056580008462B60FFF788FE431C02D12B6803B174
:10566800236038BDB4090020014800F009B800BF24
:10567800B8090020014800F004B800BFB8090020AC
:1056880070477047F8B500BFF8BC08BC9E46704725
:0C569800F8B500BFF8BC08BC9E46704787
:1056A40048656C6C6F576F726C64546573744275A3
:1056B400696C64210D0A0000000000000000000075
:1056C40001020304060708090000000001020304A4
:0456D4004344430008
:0856D80020ABFF7F0100000080
:0456E000AD01000810
:0456E4008901000830
:1056E80001000000100000000024F400D456000857
:1056F8000200000037500008CF4F0008AD4F0008E7
:10570800BF520008754F000800000000300000205C
:105718000000000000000000000000000000000081
:105728000000000000000000000000000000000071
:105738000000000000000000000000000000000061
:105748000000000000000000000000000000000051
:105758000000000000000000000000000000000041
:105768000000000000000000000000000000000031
:04000005080053B9E3
:00000001FF
